{
	"contracts/BinarySearch.sol": {
		"BinarySearch": {
			"abi": [
				{
					"inputs": [
						{
							"internalType": "uint256",
							"name": "target",
							"type": "uint256"
						}
					],
					"name": "binarySearch",
					"outputs": [
						{
							"internalType": "uint256",
							"name": "index",
							"type": "uint256"
						}
					],
					"stateMutability": "pure",
					"type": "function"
				}
			],
			"devdoc": {
				"kind": "dev",
				"methods": {},
				"version": 1
			},
			"evm": {
				"assembly": "    /* \"contracts/BinarySearch.sol\":58:1000  contract BinarySearch{... */\n  mstore(0x40, 0x80)\n  callvalue\n  dup1\n  iszero\n  tag_1\n  jumpi\n  revert(0x00, 0x00)\ntag_1:\n  pop\n  dataSize(sub_0)\n  dup1\n  dataOffset(sub_0)\n  0x00\n  codecopy\n  0x00\n  return\nstop\n\nsub_0: assembly {\n        /* \"contracts/BinarySearch.sol\":58:1000  contract BinarySearch{... */\n      mstore(0x40, 0x80)\n      callvalue\n      dup1\n      iszero\n      tag_1\n      jumpi\n      revert(0x00, 0x00)\n    tag_1:\n      pop\n      jumpi(tag_2, lt(calldatasize, 0x04))\n      shr(0xe0, calldataload(0x00))\n      dup1\n      0x8b849ded\n      eq\n      tag_3\n      jumpi\n    tag_2:\n      revert(0x00, 0x00)\n        /* \"contracts/BinarySearch.sol\":86:500  function binarySearch(uint256 target)public pure returns(uint256 index){... */\n    tag_3:\n      tag_4\n      0x04\n      dup1\n      calldatasize\n      sub\n      dup2\n      add\n      swap1\n      tag_5\n      swap2\n      swap1\n      tag_6\n      jump\t// in\n    tag_5:\n      tag_7\n      jump\t// in\n    tag_4:\n      mload(0x40)\n      tag_8\n      swap2\n      swap1\n      tag_9\n      jump\t// in\n    tag_8:\n      mload(0x40)\n      dup1\n      swap2\n      sub\n      swap1\n      return\n    tag_7:\n        /* \"contracts/BinarySearch.sol\":143:156  uint256 index */\n      0x00\n        /* \"contracts/BinarySearch.sol\":168:190  uint256[] memory array */\n      0x00\n        /* \"contracts/BinarySearch.sol\":207:209  10 */\n      0x0a\n        /* \"contracts/BinarySearch.sol\":193:210  new uint256[](10) */\n      0xffffffffffffffff\n      dup2\n      gt\n      iszero\n      tag_11\n      jumpi\n      tag_12\n      tag_13\n      jump\t// in\n    tag_12:\n    tag_11:\n      mload(0x40)\n      swap1\n      dup1\n      dup3\n      mstore\n      dup1\n      0x20\n      mul\n      0x20\n      add\n      dup3\n      add\n      0x40\n      mstore\n      dup1\n      iszero\n      tag_14\n      jumpi\n      dup2\n      0x20\n      add\n      0x20\n      dup3\n      mul\n      dup1\n      calldatasize\n      dup4\n      calldatacopy\n      dup1\n      dup3\n      add\n      swap2\n      pop\n      pop\n      swap1\n      pop\n    tag_14:\n      pop\n        /* \"contracts/BinarySearch.sol\":168:210  uint256[] memory array = new uint256[](10) */\n      swap1\n      pop\n        /* \"contracts/BinarySearch.sol\":232:233  0 */\n      0x00\n        /* \"contracts/BinarySearch.sol\":221:226  array */\n      dup2\n        /* \"contracts/BinarySearch.sol\":227:228  0 */\n      0x00\n        /* \"contracts/BinarySearch.sol\":221:229  array[0] */\n      dup2\n      mload\n      dup2\n      lt\n      tag_15\n      jumpi\n      tag_16\n      tag_17\n      jump\t// in\n    tag_16:\n    tag_15:\n      0x20\n      mul\n      0x20\n      add\n      add\n        /* \"contracts/BinarySearch.sol\":221:233  array[0] = 0 */\n      dup2\n      dup2\n      mstore\n      pop\n      pop\n        /* \"contracts/BinarySearch.sol\":255:256  4 */\n      0x04\n        /* \"contracts/BinarySearch.sol\":244:249  array */\n      dup2\n        /* \"contracts/BinarySearch.sol\":250:251  1 */\n      0x01\n        /* \"contracts/BinarySearch.sol\":244:252  array[1] */\n      dup2\n      mload\n      dup2\n      lt\n      tag_18\n      jumpi\n      tag_19\n      tag_17\n      jump\t// in\n    tag_19:\n    tag_18:\n      0x20\n      mul\n      0x20\n      add\n      add\n        /* \"contracts/BinarySearch.sol\":244:256  array[1] = 4 */\n      dup2\n      dup2\n      mstore\n      pop\n      pop\n        /* \"contracts/BinarySearch.sol\":278:279  7 */\n      0x07\n        /* \"contracts/BinarySearch.sol\":267:272  array */\n      dup2\n        /* \"contracts/BinarySearch.sol\":273:274  2 */\n      0x02\n        /* \"contracts/BinarySearch.sol\":267:275  array[2] */\n      dup2\n      mload\n      dup2\n      lt\n      tag_20\n      jumpi\n      tag_21\n      tag_17\n      jump\t// in\n    tag_21:\n    tag_20:\n      0x20\n      mul\n      0x20\n      add\n      add\n        /* \"contracts/BinarySearch.sol\":267:279  array[2] = 7 */\n      dup2\n      dup2\n      mstore\n      pop\n      pop\n        /* \"contracts/BinarySearch.sol\":301:303  12 */\n      0x0c\n        /* \"contracts/BinarySearch.sol\":290:295  array */\n      dup2\n        /* \"contracts/BinarySearch.sol\":296:297  3 */\n      0x03\n        /* \"contracts/BinarySearch.sol\":290:298  array[3] */\n      dup2\n      mload\n      dup2\n      lt\n      tag_22\n      jumpi\n      tag_23\n      tag_17\n      jump\t// in\n    tag_23:\n    tag_22:\n      0x20\n      mul\n      0x20\n      add\n      add\n        /* \"contracts/BinarySearch.sol\":290:303  array[3] = 12 */\n      dup2\n      dup2\n      mstore\n      pop\n      pop\n        /* \"contracts/BinarySearch.sol\":325:327  18 */\n      0x12\n        /* \"contracts/BinarySearch.sol\":314:319  array */\n      dup2\n        /* \"contracts/BinarySearch.sol\":320:321  4 */\n      0x04\n        /* \"contracts/BinarySearch.sol\":314:322  array[4] */\n      dup2\n      mload\n      dup2\n      lt\n      tag_24\n      jumpi\n      tag_25\n      tag_17\n      jump\t// in\n    tag_25:\n    tag_24:\n      0x20\n      mul\n      0x20\n      add\n      add\n        /* \"contracts/BinarySearch.sol\":314:327  array[4] = 18 */\n      dup2\n      dup2\n      mstore\n      pop\n      pop\n        /* \"contracts/BinarySearch.sol\":349:351  25 */\n      0x19\n        /* \"contracts/BinarySearch.sol\":338:343  array */\n      dup2\n        /* \"contracts/BinarySearch.sol\":344:345  5 */\n      0x05\n        /* \"contracts/BinarySearch.sol\":338:346  array[5] */\n      dup2\n      mload\n      dup2\n      lt\n      tag_26\n      jumpi\n      tag_27\n      tag_17\n      jump\t// in\n    tag_27:\n    tag_26:\n      0x20\n      mul\n      0x20\n      add\n      add\n        /* \"contracts/BinarySearch.sol\":338:351  array[5] = 25 */\n      dup2\n      dup2\n      mstore\n      pop\n      pop\n        /* \"contracts/BinarySearch.sol\":373:375  33 */\n      0x21\n        /* \"contracts/BinarySearch.sol\":362:367  array */\n      dup2\n        /* \"contracts/BinarySearch.sol\":368:369  6 */\n      0x06\n        /* \"contracts/BinarySearch.sol\":362:370  array[6] */\n      dup2\n      mload\n      dup2\n      lt\n      tag_28\n      jumpi\n      tag_29\n      tag_17\n      jump\t// in\n    tag_29:\n    tag_28:\n      0x20\n      mul\n      0x20\n      add\n      add\n        /* \"contracts/BinarySearch.sol\":362:375  array[6] = 33 */\n      dup2\n      dup2\n      mstore\n      pop\n      pop\n        /* \"contracts/BinarySearch.sol\":397:399  41 */\n      0x29\n        /* \"contracts/BinarySearch.sol\":386:391  array */\n      dup2\n        /* \"contracts/BinarySearch.sol\":392:393  7 */\n      0x07\n        /* \"contracts/BinarySearch.sol\":386:394  array[7] */\n      dup2\n      mload\n      dup2\n      lt\n      tag_30\n      jumpi\n      tag_31\n      tag_17\n      jump\t// in\n    tag_31:\n    tag_30:\n      0x20\n      mul\n      0x20\n      add\n      add\n        /* \"contracts/BinarySearch.sol\":386:399  array[7] = 41 */\n      dup2\n      dup2\n      mstore\n      pop\n      pop\n        /* \"contracts/BinarySearch.sol\":421:423  56 */\n      0x38\n        /* \"contracts/BinarySearch.sol\":410:415  array */\n      dup2\n        /* \"contracts/BinarySearch.sol\":416:417  8 */\n      0x08\n        /* \"contracts/BinarySearch.sol\":410:418  array[8] */\n      dup2\n      mload\n      dup2\n      lt\n      tag_32\n      jumpi\n      tag_33\n      tag_17\n      jump\t// in\n    tag_33:\n    tag_32:\n      0x20\n      mul\n      0x20\n      add\n      add\n        /* \"contracts/BinarySearch.sol\":410:423  array[8] = 56 */\n      dup2\n      dup2\n      mstore\n      pop\n      pop\n        /* \"contracts/BinarySearch.sol\":445:447  78 */\n      0x4e\n        /* \"contracts/BinarySearch.sol\":434:439  array */\n      dup2\n        /* \"contracts/BinarySearch.sol\":440:441  9 */\n      0x09\n        /* \"contracts/BinarySearch.sol\":434:442  array[9] */\n      dup2\n      mload\n      dup2\n      lt\n      tag_34\n      jumpi\n      tag_35\n      tag_17\n      jump\t// in\n    tag_35:\n    tag_34:\n      0x20\n      mul\n      0x20\n      add\n      add\n        /* \"contracts/BinarySearch.sol\":434:447  array[9] = 78 */\n      dup2\n      dup2\n      mstore\n      pop\n      pop\n        /* \"contracts/BinarySearch.sol\":466:492  half(array, target, 0, 10) */\n      tag_36\n        /* \"contracts/BinarySearch.sol\":471:476  array */\n      dup2\n        /* \"contracts/BinarySearch.sol\":478:484  target */\n      dup5\n        /* \"contracts/BinarySearch.sol\":486:487  0 */\n      0x00\n        /* \"contracts/BinarySearch.sol\":489:491  10 */\n      0x0a\n        /* \"contracts/BinarySearch.sol\":466:470  half */\n      tag_37\n        /* \"contracts/BinarySearch.sol\":466:492  half(array, target, 0, 10) */\n      jump\t// in\n    tag_36:\n        /* \"contracts/BinarySearch.sol\":458:492  return  half(array, target, 0, 10) */\n      swap2\n      pop\n      pop\n        /* \"contracts/BinarySearch.sol\":86:500  function binarySearch(uint256 target)public pure returns(uint256 index){... */\n      swap2\n      swap1\n      pop\n      jump\t// out\n        /* \"contracts/BinarySearch.sol\":508:997  function half(uint256[] memory array,uint256 target,uint256 start,uint256 end)private pure returns(uint256 index){... */\n    tag_37:\n        /* \"contracts/BinarySearch.sol\":607:620  uint256 index */\n      0x00\n        /* \"contracts/BinarySearch.sol\":649:652  end */\n      dup2\n        /* \"contracts/BinarySearch.sol\":640:645  start */\n      dup4\n        /* \"contracts/BinarySearch.sol\":640:652  start >= end */\n      lt\n        /* \"contracts/BinarySearch.sol\":636:706  if (start >= end) {... */\n      tag_39\n      jumpi\n        /* \"contracts/BinarySearch.sol\":676:693  type(uint256).max */\n      0xffffffffffffffffffffffffffffffffffffffffffffffffffffffffffffffff\n        /* \"contracts/BinarySearch.sol\":669:693  return type(uint256).max */\n      swap1\n      pop\n      jump(tag_38)\n        /* \"contracts/BinarySearch.sol\":636:706  if (start >= end) {... */\n    tag_39:\n        /* \"contracts/BinarySearch.sol\":735:736  2 */\n      0x02\n        /* \"contracts/BinarySearch.sol\":730:733  end */\n      dup3\n        /* \"contracts/BinarySearch.sol\":724:729  start */\n      dup5\n        /* \"contracts/BinarySearch.sol\":724:733  start+end */\n      tag_40\n      swap2\n      swap1\n      tag_41\n      jump\t// in\n    tag_40:\n        /* \"contracts/BinarySearch.sol\":723:736  (start+end)/2 */\n      tag_42\n      swap2\n      swap1\n      tag_43\n      jump\t// in\n    tag_42:\n        /* \"contracts/BinarySearch.sol\":716:736  index =(start+end)/2 */\n      swap1\n      pop\n        /* \"contracts/BinarySearch.sol\":747:758  uint256 mid */\n      0x00\n        /* \"contracts/BinarySearch.sol\":761:766  array */\n      dup6\n        /* \"contracts/BinarySearch.sol\":767:772  index */\n      dup3\n        /* \"contracts/BinarySearch.sol\":761:773  array[index] */\n      dup2\n      mload\n      dup2\n      lt\n      tag_44\n      jumpi\n      tag_45\n      tag_17\n      jump\t// in\n    tag_45:\n    tag_44:\n      0x20\n      mul\n      0x20\n      add\n      add\n      mload\n        /* \"contracts/BinarySearch.sol\":747:773  uint256 mid = array[index] */\n      swap1\n      pop\n        /* \"contracts/BinarySearch.sol\":792:798  target */\n      dup5\n        /* \"contracts/BinarySearch.sol\":787:790  mid */\n      dup2\n        /* \"contracts/BinarySearch.sol\":787:798  mid==target */\n      sub\n        /* \"contracts/BinarySearch.sol\":784:990  if(mid==target){... */\n      tag_46\n      jumpi\n        /* \"contracts/BinarySearch.sol\":814:826  return index */\n      pop\n      jump(tag_38)\n        /* \"contracts/BinarySearch.sol\":784:990  if(mid==target){... */\n    tag_46:\n        /* \"contracts/BinarySearch.sol\":851:857  target */\n      dup5\n        /* \"contracts/BinarySearch.sol\":847:850  mid */\n      dup2\n        /* \"contracts/BinarySearch.sol\":847:857  mid<target */\n      lt\n        /* \"contracts/BinarySearch.sol\":843:990  if (mid<target){... */\n      iszero\n      tag_48\n      jumpi\n        /* \"contracts/BinarySearch.sol\":880:910  half(array,target,index+1,end) */\n      tag_49\n        /* \"contracts/BinarySearch.sol\":885:890  array */\n      dup7\n        /* \"contracts/BinarySearch.sol\":891:897  target */\n      dup7\n        /* \"contracts/BinarySearch.sol\":904:905  1 */\n      0x01\n        /* \"contracts/BinarySearch.sol\":898:903  index */\n      dup6\n        /* \"contracts/BinarySearch.sol\":898:905  index+1 */\n      tag_50\n      swap2\n      swap1\n      tag_41\n      jump\t// in\n    tag_50:\n        /* \"contracts/BinarySearch.sol\":906:909  end */\n      dup7\n        /* \"contracts/BinarySearch.sol\":880:884  half */\n      tag_37\n        /* \"contracts/BinarySearch.sol\":880:910  half(array,target,index+1,end) */\n      jump\t// in\n    tag_49:\n        /* \"contracts/BinarySearch.sol\":873:910  return half(array,target,index+1,end) */\n      swap2\n      pop\n      pop\n      jump(tag_38)\n        /* \"contracts/BinarySearch.sol\":843:990  if (mid<target){... */\n    tag_48:\n        /* \"contracts/BinarySearch.sol\":948:978  half(array,target,start,index) */\n      tag_52\n        /* \"contracts/BinarySearch.sol\":953:958  array */\n      dup7\n        /* \"contracts/BinarySearch.sol\":959:965  target */\n      dup7\n        /* \"contracts/BinarySearch.sol\":966:971  start */\n      dup7\n        /* \"contracts/BinarySearch.sol\":972:977  index */\n      dup6\n        /* \"contracts/BinarySearch.sol\":948:952  half */\n      tag_37\n        /* \"contracts/BinarySearch.sol\":948:978  half(array,target,start,index) */\n      jump\t// in\n    tag_52:\n        /* \"contracts/BinarySearch.sol\":941:978  return half(array,target,start,index) */\n      swap2\n      pop\n      pop\n        /* \"contracts/BinarySearch.sol\":508:997  function half(uint256[] memory array,uint256 target,uint256 start,uint256 end)private pure returns(uint256 index){... */\n    tag_38:\n      swap5\n      swap4\n      pop\n      pop\n      pop\n      pop\n      jump\t// out\n        /* \"#utility.yul\":88:205   */\n    tag_54:\n        /* \"#utility.yul\":197:198   */\n      0x00\n        /* \"#utility.yul\":194:195   */\n      0x00\n        /* \"#utility.yul\":187:199   */\n      revert\n        /* \"#utility.yul\":334:411   */\n    tag_56:\n        /* \"#utility.yul\":371:378   */\n      0x00\n        /* \"#utility.yul\":400:405   */\n      dup2\n        /* \"#utility.yul\":389:405   */\n      swap1\n      pop\n        /* \"#utility.yul\":334:411   */\n      swap2\n      swap1\n      pop\n      jump\t// out\n        /* \"#utility.yul\":417:539   */\n    tag_57:\n        /* \"#utility.yul\":490:514   */\n      tag_68\n        /* \"#utility.yul\":508:513   */\n      dup2\n        /* \"#utility.yul\":490:514   */\n      tag_56\n      jump\t// in\n    tag_68:\n        /* \"#utility.yul\":483:488   */\n      dup2\n        /* \"#utility.yul\":480:515   */\n      eq\n        /* \"#utility.yul\":470:533   */\n      tag_69\n      jumpi\n        /* \"#utility.yul\":529:530   */\n      0x00\n        /* \"#utility.yul\":526:527   */\n      0x00\n        /* \"#utility.yul\":519:531   */\n      revert\n        /* \"#utility.yul\":470:533   */\n    tag_69:\n        /* \"#utility.yul\":417:539   */\n      pop\n      jump\t// out\n        /* \"#utility.yul\":545:684   */\n    tag_58:\n        /* \"#utility.yul\":591:596   */\n      0x00\n        /* \"#utility.yul\":629:635   */\n      dup2\n        /* \"#utility.yul\":616:636   */\n      calldataload\n        /* \"#utility.yul\":607:636   */\n      swap1\n      pop\n        /* \"#utility.yul\":645:678   */\n      tag_71\n        /* \"#utility.yul\":672:677   */\n      dup2\n        /* \"#utility.yul\":645:678   */\n      tag_57\n      jump\t// in\n    tag_71:\n        /* \"#utility.yul\":545:684   */\n      swap3\n      swap2\n      pop\n      pop\n      jump\t// out\n        /* \"#utility.yul\":690:1019   */\n    tag_6:\n        /* \"#utility.yul\":749:755   */\n      0x00\n        /* \"#utility.yul\":798:800   */\n      0x20\n        /* \"#utility.yul\":786:795   */\n      dup3\n        /* \"#utility.yul\":777:784   */\n      dup5\n        /* \"#utility.yul\":773:796   */\n      sub\n        /* \"#utility.yul\":769:801   */\n      slt\n        /* \"#utility.yul\":766:885   */\n      iszero\n      tag_73\n      jumpi\n        /* \"#utility.yul\":804:883   */\n      tag_74\n      tag_54\n      jump\t// in\n    tag_74:\n        /* \"#utility.yul\":766:885   */\n    tag_73:\n        /* \"#utility.yul\":924:925   */\n      0x00\n        /* \"#utility.yul\":949:1002   */\n      tag_75\n        /* \"#utility.yul\":994:1001   */\n      dup5\n        /* \"#utility.yul\":985:991   */\n      dup3\n        /* \"#utility.yul\":974:983   */\n      dup6\n        /* \"#utility.yul\":970:992   */\n      add\n        /* \"#utility.yul\":949:1002   */\n      tag_58\n      jump\t// in\n    tag_75:\n        /* \"#utility.yul\":939:1002   */\n      swap2\n      pop\n        /* \"#utility.yul\":895:1012   */\n      pop\n        /* \"#utility.yul\":690:1019   */\n      swap3\n      swap2\n      pop\n      pop\n      jump\t// out\n        /* \"#utility.yul\":1025:1143   */\n    tag_59:\n        /* \"#utility.yul\":1112:1136   */\n      tag_77\n        /* \"#utility.yul\":1130:1135   */\n      dup2\n        /* \"#utility.yul\":1112:1136   */\n      tag_56\n      jump\t// in\n    tag_77:\n        /* \"#utility.yul\":1107:1110   */\n      dup3\n        /* \"#utility.yul\":1100:1137   */\n      mstore\n        /* \"#utility.yul\":1025:1143   */\n      pop\n      pop\n      jump\t// out\n        /* \"#utility.yul\":1149:1371   */\n    tag_9:\n        /* \"#utility.yul\":1242:1246   */\n      0x00\n        /* \"#utility.yul\":1280:1282   */\n      0x20\n        /* \"#utility.yul\":1269:1278   */\n      dup3\n        /* \"#utility.yul\":1265:1283   */\n      add\n        /* \"#utility.yul\":1257:1283   */\n      swap1\n      pop\n        /* \"#utility.yul\":1293:1364   */\n      tag_79\n        /* \"#utility.yul\":1361:1362   */\n      0x00\n        /* \"#utility.yul\":1350:1359   */\n      dup4\n        /* \"#utility.yul\":1346:1363   */\n      add\n        /* \"#utility.yul\":1337:1343   */\n      dup5\n        /* \"#utility.yul\":1293:1364   */\n      tag_59\n      jump\t// in\n    tag_79:\n        /* \"#utility.yul\":1149:1371   */\n      swap3\n      swap2\n      pop\n      pop\n      jump\t// out\n        /* \"#utility.yul\":1377:1557   */\n    tag_13:\n        /* \"#utility.yul\":1425:1502   */\n      0x4e487b7100000000000000000000000000000000000000000000000000000000\n        /* \"#utility.yul\":1422:1423   */\n      0x00\n        /* \"#utility.yul\":1415:1503   */\n      mstore\n        /* \"#utility.yul\":1522:1526   */\n      0x41\n        /* \"#utility.yul\":1519:1520   */\n      0x04\n        /* \"#utility.yul\":1512:1527   */\n      mstore\n        /* \"#utility.yul\":1546:1550   */\n      0x24\n        /* \"#utility.yul\":1543:1544   */\n      0x00\n        /* \"#utility.yul\":1536:1551   */\n      revert\n        /* \"#utility.yul\":1563:1743   */\n    tag_17:\n        /* \"#utility.yul\":1611:1688   */\n      0x4e487b7100000000000000000000000000000000000000000000000000000000\n        /* \"#utility.yul\":1608:1609   */\n      0x00\n        /* \"#utility.yul\":1601:1689   */\n      mstore\n        /* \"#utility.yul\":1708:1712   */\n      0x32\n        /* \"#utility.yul\":1705:1706   */\n      0x04\n        /* \"#utility.yul\":1698:1713   */\n      mstore\n        /* \"#utility.yul\":1732:1736   */\n      0x24\n        /* \"#utility.yul\":1729:1730   */\n      0x00\n        /* \"#utility.yul\":1722:1737   */\n      revert\n        /* \"#utility.yul\":1749:1929   */\n    tag_60:\n        /* \"#utility.yul\":1797:1874   */\n      0x4e487b7100000000000000000000000000000000000000000000000000000000\n        /* \"#utility.yul\":1794:1795   */\n      0x00\n        /* \"#utility.yul\":1787:1875   */\n      mstore\n        /* \"#utility.yul\":1894:1898   */\n      0x11\n        /* \"#utility.yul\":1891:1892   */\n      0x04\n        /* \"#utility.yul\":1884:1899   */\n      mstore\n        /* \"#utility.yul\":1918:1922   */\n      0x24\n        /* \"#utility.yul\":1915:1916   */\n      0x00\n        /* \"#utility.yul\":1908:1923   */\n      revert\n        /* \"#utility.yul\":1935:2126   */\n    tag_41:\n        /* \"#utility.yul\":1975:1978   */\n      0x00\n        /* \"#utility.yul\":1994:2014   */\n      tag_84\n        /* \"#utility.yul\":2012:2013   */\n      dup3\n        /* \"#utility.yul\":1994:2014   */\n      tag_56\n      jump\t// in\n    tag_84:\n        /* \"#utility.yul\":1989:2014   */\n      swap2\n      pop\n        /* \"#utility.yul\":2028:2048   */\n      tag_85\n        /* \"#utility.yul\":2046:2047   */\n      dup4\n        /* \"#utility.yul\":2028:2048   */\n      tag_56\n      jump\t// in\n    tag_85:\n        /* \"#utility.yul\":2023:2048   */\n      swap3\n      pop\n        /* \"#utility.yul\":2071:2072   */\n      dup3\n        /* \"#utility.yul\":2068:2069   */\n      dup3\n        /* \"#utility.yul\":2064:2073   */\n      add\n        /* \"#utility.yul\":2057:2073   */\n      swap1\n      pop\n        /* \"#utility.yul\":2092:2095   */\n      dup1\n        /* \"#utility.yul\":2089:2090   */\n      dup3\n        /* \"#utility.yul\":2086:2096   */\n      gt\n        /* \"#utility.yul\":2083:2119   */\n      iszero\n      tag_86\n      jumpi\n        /* \"#utility.yul\":2099:2117   */\n      tag_87\n      tag_60\n      jump\t// in\n    tag_87:\n        /* \"#utility.yul\":2083:2119   */\n    tag_86:\n        /* \"#utility.yul\":1935:2126   */\n      swap3\n      swap2\n      pop\n      pop\n      jump\t// out\n        /* \"#utility.yul\":2132:2312   */\n    tag_61:\n        /* \"#utility.yul\":2180:2257   */\n      0x4e487b7100000000000000000000000000000000000000000000000000000000\n        /* \"#utility.yul\":2177:2178   */\n      0x00\n        /* \"#utility.yul\":2170:2258   */\n      mstore\n        /* \"#utility.yul\":2277:2281   */\n      0x12\n        /* \"#utility.yul\":2274:2275   */\n      0x04\n        /* \"#utility.yul\":2267:2282   */\n      mstore\n        /* \"#utility.yul\":2301:2305   */\n      0x24\n        /* \"#utility.yul\":2298:2299   */\n      0x00\n        /* \"#utility.yul\":2291:2306   */\n      revert\n        /* \"#utility.yul\":2318:2503   */\n    tag_43:\n        /* \"#utility.yul\":2358:2359   */\n      0x00\n        /* \"#utility.yul\":2375:2395   */\n      tag_90\n        /* \"#utility.yul\":2393:2394   */\n      dup3\n        /* \"#utility.yul\":2375:2395   */\n      tag_56\n      jump\t// in\n    tag_90:\n        /* \"#utility.yul\":2370:2395   */\n      swap2\n      pop\n        /* \"#utility.yul\":2409:2429   */\n      tag_91\n        /* \"#utility.yul\":2427:2428   */\n      dup4\n        /* \"#utility.yul\":2409:2429   */\n      tag_56\n      jump\t// in\n    tag_91:\n        /* \"#utility.yul\":2404:2429   */\n      swap3\n      pop\n        /* \"#utility.yul\":2448:2449   */\n      dup3\n        /* \"#utility.yul\":2438:2473   */\n      tag_92\n      jumpi\n        /* \"#utility.yul\":2453:2471   */\n      tag_93\n      tag_61\n      jump\t// in\n    tag_93:\n        /* \"#utility.yul\":2438:2473   */\n    tag_92:\n        /* \"#utility.yul\":2495:2496   */\n      dup3\n        /* \"#utility.yul\":2492:2493   */\n      dup3\n        /* \"#utility.yul\":2488:2497   */\n      div\n        /* \"#utility.yul\":2483:2497   */\n      swap1\n      pop\n        /* \"#utility.yul\":2318:2503   */\n      swap3\n      swap2\n      pop\n      pop\n      jump\t// out\n\n    auxdata: 0xa2646970667358221220ea4d9b845bccb3c86639c0457e34d0e31965ef2b93292ab8b50f15e7bfc30b6564736f6c634300081e0033\n}\n",
				"bytecode": {
					"linkReferences": {},
					"object": "6080604052348015600e575f5ffd5b5061049e8061001c5f395ff3fe608060405234801561000f575f5ffd5b5060043610610029575f3560e01c80638b849ded1461002d575b5f5ffd5b610047600480360381019061004291906102fe565b61005d565b6040516100549190610338565b60405180910390f35b5f5f600a67ffffffffffffffff81111561007a57610079610351565b5b6040519080825280602002602001820160405280156100a85781602001602082028036833780820191505090505b5090505f815f815181106100bf576100be61037e565b5b6020026020010181815250506004816001815181106100e1576100e061037e565b5b6020026020010181815250506007816002815181106101035761010261037e565b5b602002602001018181525050600c816003815181106101255761012461037e565b5b6020026020010181815250506012816004815181106101475761014661037e565b5b6020026020010181815250506019816005815181106101695761016861037e565b5b60200260200101818152505060218160068151811061018b5761018a61037e565b5b6020026020010181815250506029816007815181106101ad576101ac61037e565b5b6020026020010181815250506038816008815181106101cf576101ce61037e565b5b602002602001018181525050604e816009815181106101f1576101f061037e565b5b60200260200101818152505061020a81845f600a610212565b915050919050565b5f818310610242577fffffffffffffffffffffffffffffffffffffffffffffffffffffffffffffffff90506102bf565b6002828461025091906103d8565b61025a9190610438565b90505f8582815181106102705761026f61037e565b5b6020026020010151905084810361028757506102bf565b848110156102af576102a786866001856102a191906103d8565b86610212565b9150506102bf565b6102bb86868685610212565b9150505b949350505050565b5f5ffd5b5f819050919050565b6102dd816102cb565b81146102e7575f5ffd5b50565b5f813590506102f8816102d4565b92915050565b5f60208284031215610313576103126102c7565b5b5f610320848285016102ea565b91505092915050565b610332816102cb565b82525050565b5f60208201905061034b5f830184610329565b92915050565b7f4e487b71000000000000000000000000000000000000000000000000000000005f52604160045260245ffd5b7f4e487b71000000000000000000000000000000000000000000000000000000005f52603260045260245ffd5b7f4e487b71000000000000000000000000000000000000000000000000000000005f52601160045260245ffd5b5f6103e2826102cb565b91506103ed836102cb565b9250828201905080821115610405576104046103ab565b5b92915050565b7f4e487b71000000000000000000000000000000000000000000000000000000005f52601260045260245ffd5b5f610442826102cb565b915061044d836102cb565b92508261045d5761045c61040b565b5b82820490509291505056fea2646970667358221220ea4d9b845bccb3c86639c0457e34d0e31965ef2b93292ab8b50f15e7bfc30b6564736f6c634300081e0033",
					"opcodes": "PUSH1 0x80 PUSH1 0x40 MSTORE CALLVALUE DUP1 ISZERO PUSH1 0xE JUMPI PUSH0 PUSH0 REVERT JUMPDEST POP PUSH2 0x49E DUP1 PUSH2 0x1C PUSH0 CODECOPY PUSH0 RETURN INVALID PUSH1 0x80 PUSH1 0x40 MSTORE CALLVALUE DUP1 ISZERO PUSH2 0xF JUMPI PUSH0 PUSH0 REVERT JUMPDEST POP PUSH1 0x4 CALLDATASIZE LT PUSH2 0x29 JUMPI PUSH0 CALLDATALOAD PUSH1 0xE0 SHR DUP1 PUSH4 0x8B849DED EQ PUSH2 0x2D JUMPI JUMPDEST PUSH0 PUSH0 REVERT JUMPDEST PUSH2 0x47 PUSH1 0x4 DUP1 CALLDATASIZE SUB DUP2 ADD SWAP1 PUSH2 0x42 SWAP2 SWAP1 PUSH2 0x2FE JUMP JUMPDEST PUSH2 0x5D JUMP JUMPDEST PUSH1 0x40 MLOAD PUSH2 0x54 SWAP2 SWAP1 PUSH2 0x338 JUMP JUMPDEST PUSH1 0x40 MLOAD DUP1 SWAP2 SUB SWAP1 RETURN JUMPDEST PUSH0 PUSH0 PUSH1 0xA PUSH8 0xFFFFFFFFFFFFFFFF DUP2 GT ISZERO PUSH2 0x7A JUMPI PUSH2 0x79 PUSH2 0x351 JUMP JUMPDEST JUMPDEST PUSH1 0x40 MLOAD SWAP1 DUP1 DUP3 MSTORE DUP1 PUSH1 0x20 MUL PUSH1 0x20 ADD DUP3 ADD PUSH1 0x40 MSTORE DUP1 ISZERO PUSH2 0xA8 JUMPI DUP2 PUSH1 0x20 ADD PUSH1 0x20 DUP3 MUL DUP1 CALLDATASIZE DUP4 CALLDATACOPY DUP1 DUP3 ADD SWAP2 POP POP SWAP1 POP JUMPDEST POP SWAP1 POP PUSH0 DUP2 PUSH0 DUP2 MLOAD DUP2 LT PUSH2 0xBF JUMPI PUSH2 0xBE PUSH2 0x37E JUMP JUMPDEST JUMPDEST PUSH1 0x20 MUL PUSH1 0x20 ADD ADD DUP2 DUP2 MSTORE POP POP PUSH1 0x4 DUP2 PUSH1 0x1 DUP2 MLOAD DUP2 LT PUSH2 0xE1 JUMPI PUSH2 0xE0 PUSH2 0x37E JUMP JUMPDEST JUMPDEST PUSH1 0x20 MUL PUSH1 0x20 ADD ADD DUP2 DUP2 MSTORE POP POP PUSH1 0x7 DUP2 PUSH1 0x2 DUP2 MLOAD DUP2 LT PUSH2 0x103 JUMPI PUSH2 0x102 PUSH2 0x37E JUMP JUMPDEST JUMPDEST PUSH1 0x20 MUL PUSH1 0x20 ADD ADD DUP2 DUP2 MSTORE POP POP PUSH1 0xC DUP2 PUSH1 0x3 DUP2 MLOAD DUP2 LT PUSH2 0x125 JUMPI PUSH2 0x124 PUSH2 0x37E JUMP JUMPDEST JUMPDEST PUSH1 0x20 MUL PUSH1 0x20 ADD ADD DUP2 DUP2 MSTORE POP POP PUSH1 0x12 DUP2 PUSH1 0x4 DUP2 MLOAD DUP2 LT PUSH2 0x147 JUMPI PUSH2 0x146 PUSH2 0x37E JUMP JUMPDEST JUMPDEST PUSH1 0x20 MUL PUSH1 0x20 ADD ADD DUP2 DUP2 MSTORE POP POP PUSH1 0x19 DUP2 PUSH1 0x5 DUP2 MLOAD DUP2 LT PUSH2 0x169 JUMPI PUSH2 0x168 PUSH2 0x37E JUMP JUMPDEST JUMPDEST PUSH1 0x20 MUL PUSH1 0x20 ADD ADD DUP2 DUP2 MSTORE POP POP PUSH1 0x21 DUP2 PUSH1 0x6 DUP2 MLOAD DUP2 LT PUSH2 0x18B JUMPI PUSH2 0x18A PUSH2 0x37E JUMP JUMPDEST JUMPDEST PUSH1 0x20 MUL PUSH1 0x20 ADD ADD DUP2 DUP2 MSTORE POP POP PUSH1 0x29 DUP2 PUSH1 0x7 DUP2 MLOAD DUP2 LT PUSH2 0x1AD JUMPI PUSH2 0x1AC PUSH2 0x37E JUMP JUMPDEST JUMPDEST PUSH1 0x20 MUL PUSH1 0x20 ADD ADD DUP2 DUP2 MSTORE POP POP PUSH1 0x38 DUP2 PUSH1 0x8 DUP2 MLOAD DUP2 LT PUSH2 0x1CF JUMPI PUSH2 0x1CE PUSH2 0x37E JUMP JUMPDEST JUMPDEST PUSH1 0x20 MUL PUSH1 0x20 ADD ADD DUP2 DUP2 MSTORE POP POP PUSH1 0x4E DUP2 PUSH1 0x9 DUP2 MLOAD DUP2 LT PUSH2 0x1F1 JUMPI PUSH2 0x1F0 PUSH2 0x37E JUMP JUMPDEST JUMPDEST PUSH1 0x20 MUL PUSH1 0x20 ADD ADD DUP2 DUP2 MSTORE POP POP PUSH2 0x20A DUP2 DUP5 PUSH0 PUSH1 0xA PUSH2 0x212 JUMP JUMPDEST SWAP2 POP POP SWAP2 SWAP1 POP JUMP JUMPDEST PUSH0 DUP2 DUP4 LT PUSH2 0x242 JUMPI PUSH32 0xFFFFFFFFFFFFFFFFFFFFFFFFFFFFFFFFFFFFFFFFFFFFFFFFFFFFFFFFFFFFFFFF SWAP1 POP PUSH2 0x2BF JUMP JUMPDEST PUSH1 0x2 DUP3 DUP5 PUSH2 0x250 SWAP2 SWAP1 PUSH2 0x3D8 JUMP JUMPDEST PUSH2 0x25A SWAP2 SWAP1 PUSH2 0x438 JUMP JUMPDEST SWAP1 POP PUSH0 DUP6 DUP3 DUP2 MLOAD DUP2 LT PUSH2 0x270 JUMPI PUSH2 0x26F PUSH2 0x37E JUMP JUMPDEST JUMPDEST PUSH1 0x20 MUL PUSH1 0x20 ADD ADD MLOAD SWAP1 POP DUP5 DUP2 SUB PUSH2 0x287 JUMPI POP PUSH2 0x2BF JUMP JUMPDEST DUP5 DUP2 LT ISZERO PUSH2 0x2AF JUMPI PUSH2 0x2A7 DUP7 DUP7 PUSH1 0x1 DUP6 PUSH2 0x2A1 SWAP2 SWAP1 PUSH2 0x3D8 JUMP JUMPDEST DUP7 PUSH2 0x212 JUMP JUMPDEST SWAP2 POP POP PUSH2 0x2BF JUMP JUMPDEST PUSH2 0x2BB DUP7 DUP7 DUP7 DUP6 PUSH2 0x212 JUMP JUMPDEST SWAP2 POP POP JUMPDEST SWAP5 SWAP4 POP POP POP POP JUMP JUMPDEST PUSH0 PUSH0 REVERT JUMPDEST PUSH0 DUP2 SWAP1 POP SWAP2 SWAP1 POP JUMP JUMPDEST PUSH2 0x2DD DUP2 PUSH2 0x2CB JUMP JUMPDEST DUP2 EQ PUSH2 0x2E7 JUMPI PUSH0 PUSH0 REVERT JUMPDEST POP JUMP JUMPDEST PUSH0 DUP2 CALLDATALOAD SWAP1 POP PUSH2 0x2F8 DUP2 PUSH2 0x2D4 JUMP JUMPDEST SWAP3 SWAP2 POP POP JUMP JUMPDEST PUSH0 PUSH1 0x20 DUP3 DUP5 SUB SLT ISZERO PUSH2 0x313 JUMPI PUSH2 0x312 PUSH2 0x2C7 JUMP JUMPDEST JUMPDEST PUSH0 PUSH2 0x320 DUP5 DUP3 DUP6 ADD PUSH2 0x2EA JUMP JUMPDEST SWAP2 POP POP SWAP3 SWAP2 POP POP JUMP JUMPDEST PUSH2 0x332 DUP2 PUSH2 0x2CB JUMP JUMPDEST DUP3 MSTORE POP POP JUMP JUMPDEST PUSH0 PUSH1 0x20 DUP3 ADD SWAP1 POP PUSH2 0x34B PUSH0 DUP4 ADD DUP5 PUSH2 0x329 JUMP JUMPDEST SWAP3 SWAP2 POP POP JUMP JUMPDEST PUSH32 0x4E487B7100000000000000000000000000000000000000000000000000000000 PUSH0 MSTORE PUSH1 0x41 PUSH1 0x4 MSTORE PUSH1 0x24 PUSH0 REVERT JUMPDEST PUSH32 0x4E487B7100000000000000000000000000000000000000000000000000000000 PUSH0 MSTORE PUSH1 0x32 PUSH1 0x4 MSTORE PUSH1 0x24 PUSH0 REVERT JUMPDEST PUSH32 0x4E487B7100000000000000000000000000000000000000000000000000000000 PUSH0 MSTORE PUSH1 0x11 PUSH1 0x4 MSTORE PUSH1 0x24 PUSH0 REVERT JUMPDEST PUSH0 PUSH2 0x3E2 DUP3 PUSH2 0x2CB JUMP JUMPDEST SWAP2 POP PUSH2 0x3ED DUP4 PUSH2 0x2CB JUMP JUMPDEST SWAP3 POP DUP3 DUP3 ADD SWAP1 POP DUP1 DUP3 GT ISZERO PUSH2 0x405 JUMPI PUSH2 0x404 PUSH2 0x3AB JUMP JUMPDEST JUMPDEST SWAP3 SWAP2 POP POP JUMP JUMPDEST PUSH32 0x4E487B7100000000000000000000000000000000000000000000000000000000 PUSH0 MSTORE PUSH1 0x12 PUSH1 0x4 MSTORE PUSH1 0x24 PUSH0 REVERT JUMPDEST PUSH0 PUSH2 0x442 DUP3 PUSH2 0x2CB JUMP JUMPDEST SWAP2 POP PUSH2 0x44D DUP4 PUSH2 0x2CB JUMP JUMPDEST SWAP3 POP DUP3 PUSH2 0x45D JUMPI PUSH2 0x45C PUSH2 0x40B JUMP JUMPDEST JUMPDEST DUP3 DUP3 DIV SWAP1 POP SWAP3 SWAP2 POP POP JUMP INVALID LOG2 PUSH5 0x6970667358 0x22 SLT KECCAK256 0xEA 0x4D SWAP12 DUP5 JUMPDEST 0xCC 0xB3 0xC8 PUSH7 0x39C0457E34D0E3 NOT PUSH6 0xEF2B93292AB8 0xB5 0xF ISZERO SWAPN 0xBF 0xC3 SIGNEXTEND PUSH6 0x64736F6C6343 STOP ADDMOD 0x1E STOP CALLER "
				},
				"gasEstimates": {
					"creation": {
						"codeDepositCost": "236400",
						"executionCost": "273",
						"totalCost": "236673"
					},
					"external": {
						"binarySearch(uint256)": "infinite"
					},
					"internal": {
						"half(uint256[] memory,uint256,uint256,uint256)": "infinite"
					}
				},
				"methodIdentifiers": {
					"binarySearch(uint256)": "8b849ded"
				}
			},
			"storageLayout": {
				"storage": [],
				"types": null
			},
			"userdoc": {
				"kind": "user",
				"methods": {},
				"version": 1
			}
		}
	}
}