{
	"contracts/RomanToInteger.sol": {
		"RomanToInteger": {
			"abi": [
				{
					"inputs": [
						{
							"internalType": "string",
							"name": "roman",
							"type": "string"
						}
					],
					"name": "toInteger",
					"outputs": [
						{
							"internalType": "uint256",
							"name": "value",
							"type": "uint256"
						}
					],
					"stateMutability": "pure",
					"type": "function"
				}
			],
			"devdoc": {
				"kind": "dev",
				"methods": {},
				"version": 1
			},
			"evm": {
				"assembly": "    /* \"contracts/RomanToInteger.sol\":60:1453  contract RomanToInteger {... */\n  mstore(0x40, 0x80)\n  callvalue\n  dup1\n  iszero\n  tag_1\n  jumpi\n  0x00\n  dup1\n  revert\ntag_1:\n  pop\n  dataSize(sub_0)\n  dup1\n  dataOffset(sub_0)\n  0x00\n  codecopy\n  0x00\n  return\nstop\n\nsub_0: assembly {\n        /* \"contracts/RomanToInteger.sol\":60:1453  contract RomanToInteger {... */\n      mstore(0x40, 0x80)\n      callvalue\n      dup1\n      iszero\n      tag_1\n      jumpi\n      0x00\n      dup1\n      revert\n    tag_1:\n      pop\n      jumpi(tag_2, lt(calldatasize, 0x04))\n      shr(0xe0, calldataload(0x00))\n      dup1\n      0x84df599f\n      eq\n      tag_3\n      jumpi\n    tag_2:\n      0x00\n      dup1\n      revert\n        /* \"contracts/RomanToInteger.sol\":91:1051  function toInteger(string calldata roman) external pure returns (uint256 value) {... */\n    tag_3:\n      tag_4\n      0x04\n      dup1\n      calldatasize\n      sub\n      dup2\n      add\n      swap1\n      tag_5\n      swap2\n      swap1\n      tag_6\n      jump\t// in\n    tag_5:\n      tag_7\n      jump\t// in\n    tag_4:\n      mload(0x40)\n      tag_8\n      swap2\n      swap1\n      tag_9\n      jump\t// in\n    tag_8:\n      mload(0x40)\n      dup1\n      swap2\n      sub\n      swap1\n      return\n    tag_7:\n        /* \"contracts/RomanToInteger.sol\":156:169  uint256 value */\n      0x00\n        /* \"contracts/RomanToInteger.sol\":182:196  bytes memory s */\n      dup1\n        /* \"contracts/RomanToInteger.sol\":205:210  roman */\n      dup4\n      dup4\n        /* \"contracts/RomanToInteger.sol\":182:211  bytes memory s = bytes(roman) */\n      dup1\n      dup1\n      0x1f\n      add\n      0x20\n      dup1\n      swap2\n      div\n      mul\n      0x20\n      add\n      mload(0x40)\n      swap1\n      dup2\n      add\n      0x40\n      mstore\n      dup1\n      swap4\n      swap3\n      swap2\n      swap1\n      dup2\n      dup2\n      mstore\n      0x20\n      add\n      dup4\n      dup4\n      dup1\n      dup3\n      dup5\n      calldatacopy\n      0x00\n      dup2\n      dup5\n      add\n      mstore\n      not(0x1f)\n      0x1f\n      dup3\n      add\n      and\n      swap1\n      pop\n      dup1\n      dup4\n      add\n      swap3\n      pop\n      pop\n      pop\n      pop\n      pop\n      pop\n      pop\n      swap1\n      pop\n        /* \"contracts/RomanToInteger.sol\":241:242  0 */\n      0x00\n        /* \"contracts/RomanToInteger.sol\":230:231  s */\n      dup2\n        /* \"contracts/RomanToInteger.sol\":230:238  s.length */\n      mload\n        /* \"contracts/RomanToInteger.sol\":230:242  s.length > 0 */\n      gt\n        /* \"contracts/RomanToInteger.sol\":222:259  require(s.length > 0, \"Empty string\") */\n      tag_11\n      jumpi\n      mload(0x40)\n      0x08c379a000000000000000000000000000000000000000000000000000000000\n      dup2\n      mstore\n      0x04\n      add\n      tag_12\n      swap1\n      tag_13\n      jump\t// in\n    tag_12:\n      mload(0x40)\n      dup1\n      swap2\n      sub\n      swap1\n      revert\n    tag_11:\n        /* \"contracts/RomanToInteger.sol\":326:335  uint256 i */\n      0x00\n        /* \"contracts/RomanToInteger.sol\":321:925  for (uint256 i = 0; i < s.length; i++) {... */\n    tag_14:\n        /* \"contracts/RomanToInteger.sol\":345:346  s */\n      dup2\n        /* \"contracts/RomanToInteger.sol\":345:353  s.length */\n      mload\n        /* \"contracts/RomanToInteger.sol\":341:342  i */\n      dup2\n        /* \"contracts/RomanToInteger.sol\":341:353  i < s.length */\n      lt\n        /* \"contracts/RomanToInteger.sol\":321:925  for (uint256 i = 0; i < s.length; i++) {... */\n      iszero\n      tag_15\n      jumpi\n        /* \"contracts/RomanToInteger.sol\":375:387  uint256 curr */\n      0x00\n        /* \"contracts/RomanToInteger.sol\":390:404  _valueOf(s[i]) */\n      tag_17\n        /* \"contracts/RomanToInteger.sol\":399:400  s */\n      dup4\n        /* \"contracts/RomanToInteger.sol\":401:402  i */\n      dup4\n        /* \"contracts/RomanToInteger.sol\":399:403  s[i] */\n      dup2\n      mload\n      dup2\n      lt\n      tag_18\n      jumpi\n      tag_19\n      tag_20\n      jump\t// in\n    tag_19:\n    tag_18:\n      0x20\n      add\n      add\n      mload\n      0xf8\n      shr\n      0xf8\n      shl\n        /* \"contracts/RomanToInteger.sol\":390:398  _valueOf */\n      tag_21\n        /* \"contracts/RomanToInteger.sol\":390:404  _valueOf(s[i]) */\n      jump\t// in\n    tag_17:\n        /* \"contracts/RomanToInteger.sol\":375:404  uint256 curr = _valueOf(s[i]) */\n      swap1\n      pop\n        /* \"contracts/RomanToInteger.sol\":434:435  0 */\n      0x00\n        /* \"contracts/RomanToInteger.sol\":427:431  curr */\n      dup2\n        /* \"contracts/RomanToInteger.sol\":427:435  curr > 0 */\n      gt\n        /* \"contracts/RomanToInteger.sol\":419:458  require(curr > 0, \"Invalid Roman char\") */\n      tag_22\n      jumpi\n      mload(0x40)\n      0x08c379a000000000000000000000000000000000000000000000000000000000\n      dup2\n      mstore\n      0x04\n      add\n      tag_23\n      swap1\n      tag_24\n      jump\t// in\n    tag_23:\n      mload(0x40)\n      dup1\n      swap2\n      sub\n      swap1\n      revert\n    tag_22:\n        /* \"contracts/RomanToInteger.sol\":475:487  uint256 next */\n      0x00\n        /* \"contracts/RomanToInteger.sol\":518:519  s */\n      dup4\n        /* \"contracts/RomanToInteger.sol\":518:526  s.length */\n      mload\n        /* \"contracts/RomanToInteger.sol\":514:515  1 */\n      0x01\n        /* \"contracts/RomanToInteger.sol\":510:511  i */\n      dup5\n        /* \"contracts/RomanToInteger.sol\":510:515  i + 1 */\n      tag_25\n      swap2\n      swap1\n      tag_26\n      jump\t// in\n    tag_25:\n        /* \"contracts/RomanToInteger.sol\":510:526  i + 1 < s.length */\n      lt\n        /* \"contracts/RomanToInteger.sol\":506:646  if (i + 1 < s.length) {... */\n      iszero\n      tag_27\n      jumpi\n        /* \"contracts/RomanToInteger.sol\":554:572  _valueOf(s[i + 1]) */\n      tag_28\n        /* \"contracts/RomanToInteger.sol\":563:564  s */\n      dup5\n        /* \"contracts/RomanToInteger.sol\":569:570  1 */\n      0x01\n        /* \"contracts/RomanToInteger.sol\":565:566  i */\n      dup6\n        /* \"contracts/RomanToInteger.sol\":565:570  i + 1 */\n      tag_29\n      swap2\n      swap1\n      tag_26\n      jump\t// in\n    tag_29:\n        /* \"contracts/RomanToInteger.sol\":563:571  s[i + 1] */\n      dup2\n      mload\n      dup2\n      lt\n      tag_30\n      jumpi\n      tag_31\n      tag_20\n      jump\t// in\n    tag_31:\n    tag_30:\n      0x20\n      add\n      add\n      mload\n      0xf8\n      shr\n      0xf8\n      shl\n        /* \"contracts/RomanToInteger.sol\":554:562  _valueOf */\n      tag_21\n        /* \"contracts/RomanToInteger.sol\":554:572  _valueOf(s[i + 1]) */\n      jump\t// in\n    tag_28:\n        /* \"contracts/RomanToInteger.sol\":547:572  next = _valueOf(s[i + 1]) */\n      swap1\n      pop\n        /* \"contracts/RomanToInteger.sol\":606:607  0 */\n      0x00\n        /* \"contracts/RomanToInteger.sol\":599:603  next */\n      dup2\n        /* \"contracts/RomanToInteger.sol\":599:607  next > 0 */\n      gt\n        /* \"contracts/RomanToInteger.sol\":591:630  require(next > 0, \"Invalid Roman char\") */\n      tag_32\n      jumpi\n      mload(0x40)\n      0x08c379a000000000000000000000000000000000000000000000000000000000\n      dup2\n      mstore\n      0x04\n      add\n      tag_33\n      swap1\n      tag_24\n      jump\t// in\n    tag_33:\n      mload(0x40)\n      dup1\n      swap2\n      sub\n      swap1\n      revert\n    tag_32:\n        /* \"contracts/RomanToInteger.sol\":506:646  if (i + 1 < s.length) {... */\n    tag_27:\n        /* \"contracts/RomanToInteger.sol\":756:760  curr */\n      dup2\n        /* \"contracts/RomanToInteger.sol\":749:753  next */\n      dup2\n        /* \"contracts/RomanToInteger.sol\":749:760  next > curr */\n      gt\n        /* \"contracts/RomanToInteger.sol\":745:914  if (next > curr) {... */\n      iszero\n      tag_34\n      jumpi\n        /* \"contracts/RomanToInteger.sol\":798:802  curr */\n      dup2\n        /* \"contracts/RomanToInteger.sol\":791:795  next */\n      dup2\n        /* \"contracts/RomanToInteger.sol\":791:802  next - curr */\n      tag_35\n      swap2\n      swap1\n      tag_36\n      jump\t// in\n    tag_35:\n        /* \"contracts/RomanToInteger.sol\":781:803  value += (next - curr) */\n      dup6\n      tag_37\n      swap2\n      swap1\n      tag_26\n      jump\t// in\n    tag_37:\n      swap5\n      pop\n        /* \"contracts/RomanToInteger.sol\":822:825  i++ */\n      dup3\n      dup1\n      tag_38\n      swap1\n      tag_39\n      jump\t// in\n    tag_38:\n      swap4\n      pop\n      pop\n        /* \"contracts/RomanToInteger.sol\":745:914  if (next > curr) {... */\n      jump(tag_40)\n    tag_34:\n        /* \"contracts/RomanToInteger.sol\":894:898  curr */\n      dup2\n        /* \"contracts/RomanToInteger.sol\":885:898  value += curr */\n      dup6\n      tag_41\n      swap2\n      swap1\n      tag_26\n      jump\t// in\n    tag_41:\n      swap5\n      pop\n        /* \"contracts/RomanToInteger.sol\":745:914  if (next > curr) {... */\n    tag_40:\n        /* \"contracts/RomanToInteger.sol\":360:925  {... */\n      pop\n      pop\n        /* \"contracts/RomanToInteger.sol\":355:358  i++ */\n      dup1\n      dup1\n      tag_42\n      swap1\n      tag_39\n      jump\t// in\n    tag_42:\n      swap2\n      pop\n      pop\n        /* \"contracts/RomanToInteger.sol\":321:925  for (uint256 i = 0; i < s.length; i++) {... */\n      jump(tag_14)\n    tag_15:\n      pop\n        /* \"contracts/RomanToInteger.sol\":1008:1009  0 */\n      0x00\n        /* \"contracts/RomanToInteger.sol\":1000:1005  value */\n      dup3\n        /* \"contracts/RomanToInteger.sol\":1000:1009  value > 0 */\n      gt\n        /* \"contracts/RomanToInteger.sol\":1000:1026  value > 0 && value <= 3999 */\n      dup1\n      iszero\n      tag_43\n      jumpi\n      pop\n        /* \"contracts/RomanToInteger.sol\":1022:1026  3999 */\n      0x0f9f\n        /* \"contracts/RomanToInteger.sol\":1013:1018  value */\n      dup3\n        /* \"contracts/RomanToInteger.sol\":1013:1026  value <= 3999 */\n      gt\n      iszero\n        /* \"contracts/RomanToInteger.sol\":1000:1026  value > 0 && value <= 3999 */\n    tag_43:\n        /* \"contracts/RomanToInteger.sol\":992:1043  require(value > 0 && value <= 3999, \"Out of range\") */\n      tag_44\n      jumpi\n      mload(0x40)\n      0x08c379a000000000000000000000000000000000000000000000000000000000\n      dup2\n      mstore\n      0x04\n      add\n      tag_45\n      swap1\n      tag_46\n      jump\t// in\n    tag_45:\n      mload(0x40)\n      dup1\n      swap2\n      sub\n      swap1\n      revert\n    tag_44:\n        /* \"contracts/RomanToInteger.sol\":171:1051  {... */\n      pop\n        /* \"contracts/RomanToInteger.sol\":91:1051  function toInteger(string calldata roman) external pure returns (uint256 value) {... */\n      swap3\n      swap2\n      pop\n      pop\n      jump\t// out\n        /* \"contracts/RomanToInteger.sol\":1107:1450  function _valueOf(bytes1 c) internal pure returns (uint256) {... */\n    tag_21:\n        /* \"contracts/RomanToInteger.sol\":1158:1165  uint256 */\n      0x00\n        /* \"contracts/RomanToInteger.sol\":1182:1190  c == \"I\" */\n      0x4900000000000000000000000000000000000000000000000000000000000000\n        /* \"contracts/RomanToInteger.sol\":1182:1183  c */\n      dup3\n        /* \"contracts/RomanToInteger.sol\":1182:1190  c == \"I\" */\n      not(0xffffffffffffffffffffffffffffffffffffffffffffffffffffffffffffff)\n      and\n      sub\n        /* \"contracts/RomanToInteger.sol\":1178:1200  if (c == \"I\") return 1 */\n      tag_48\n      jumpi\n        /* \"contracts/RomanToInteger.sol\":1199:1200  1 */\n      0x01\n        /* \"contracts/RomanToInteger.sol\":1192:1200  return 1 */\n      swap1\n      pop\n      jump(tag_47)\n        /* \"contracts/RomanToInteger.sol\":1178:1200  if (c == \"I\") return 1 */\n    tag_48:\n        /* \"contracts/RomanToInteger.sol\":1215:1223  c == \"V\" */\n      0x5600000000000000000000000000000000000000000000000000000000000000\n        /* \"contracts/RomanToInteger.sol\":1215:1216  c */\n      dup3\n        /* \"contracts/RomanToInteger.sol\":1215:1223  c == \"V\" */\n      not(0xffffffffffffffffffffffffffffffffffffffffffffffffffffffffffffff)\n      and\n      sub\n        /* \"contracts/RomanToInteger.sol\":1211:1233  if (c == \"V\") return 5 */\n      tag_49\n      jumpi\n        /* \"contracts/RomanToInteger.sol\":1232:1233  5 */\n      0x05\n        /* \"contracts/RomanToInteger.sol\":1225:1233  return 5 */\n      swap1\n      pop\n      jump(tag_47)\n        /* \"contracts/RomanToInteger.sol\":1211:1233  if (c == \"V\") return 5 */\n    tag_49:\n        /* \"contracts/RomanToInteger.sol\":1248:1256  c == \"X\" */\n      0x5800000000000000000000000000000000000000000000000000000000000000\n        /* \"contracts/RomanToInteger.sol\":1248:1249  c */\n      dup3\n        /* \"contracts/RomanToInteger.sol\":1248:1256  c == \"X\" */\n      not(0xffffffffffffffffffffffffffffffffffffffffffffffffffffffffffffff)\n      and\n      sub\n        /* \"contracts/RomanToInteger.sol\":1244:1267  if (c == \"X\") return 10 */\n      tag_50\n      jumpi\n        /* \"contracts/RomanToInteger.sol\":1265:1267  10 */\n      0x0a\n        /* \"contracts/RomanToInteger.sol\":1258:1267  return 10 */\n      swap1\n      pop\n      jump(tag_47)\n        /* \"contracts/RomanToInteger.sol\":1244:1267  if (c == \"X\") return 10 */\n    tag_50:\n        /* \"contracts/RomanToInteger.sol\":1282:1290  c == \"L\" */\n      0x4c00000000000000000000000000000000000000000000000000000000000000\n        /* \"contracts/RomanToInteger.sol\":1282:1283  c */\n      dup3\n        /* \"contracts/RomanToInteger.sol\":1282:1290  c == \"L\" */\n      not(0xffffffffffffffffffffffffffffffffffffffffffffffffffffffffffffff)\n      and\n      sub\n        /* \"contracts/RomanToInteger.sol\":1278:1301  if (c == \"L\") return 50 */\n      tag_51\n      jumpi\n        /* \"contracts/RomanToInteger.sol\":1299:1301  50 */\n      0x32\n        /* \"contracts/RomanToInteger.sol\":1292:1301  return 50 */\n      swap1\n      pop\n      jump(tag_47)\n        /* \"contracts/RomanToInteger.sol\":1278:1301  if (c == \"L\") return 50 */\n    tag_51:\n        /* \"contracts/RomanToInteger.sol\":1316:1324  c == \"C\" */\n      0x4300000000000000000000000000000000000000000000000000000000000000\n        /* \"contracts/RomanToInteger.sol\":1316:1317  c */\n      dup3\n        /* \"contracts/RomanToInteger.sol\":1316:1324  c == \"C\" */\n      not(0xffffffffffffffffffffffffffffffffffffffffffffffffffffffffffffff)\n      and\n      sub\n        /* \"contracts/RomanToInteger.sol\":1312:1336  if (c == \"C\") return 100 */\n      tag_52\n      jumpi\n        /* \"contracts/RomanToInteger.sol\":1333:1336  100 */\n      0x64\n        /* \"contracts/RomanToInteger.sol\":1326:1336  return 100 */\n      swap1\n      pop\n      jump(tag_47)\n        /* \"contracts/RomanToInteger.sol\":1312:1336  if (c == \"C\") return 100 */\n    tag_52:\n        /* \"contracts/RomanToInteger.sol\":1351:1359  c == \"D\" */\n      0x4400000000000000000000000000000000000000000000000000000000000000\n        /* \"contracts/RomanToInteger.sol\":1351:1352  c */\n      dup3\n        /* \"contracts/RomanToInteger.sol\":1351:1359  c == \"D\" */\n      not(0xffffffffffffffffffffffffffffffffffffffffffffffffffffffffffffff)\n      and\n      sub\n        /* \"contracts/RomanToInteger.sol\":1347:1371  if (c == \"D\") return 500 */\n      tag_53\n      jumpi\n        /* \"contracts/RomanToInteger.sol\":1368:1371  500 */\n      0x01f4\n        /* \"contracts/RomanToInteger.sol\":1361:1371  return 500 */\n      swap1\n      pop\n      jump(tag_47)\n        /* \"contracts/RomanToInteger.sol\":1347:1371  if (c == \"D\") return 500 */\n    tag_53:\n        /* \"contracts/RomanToInteger.sol\":1386:1394  c == \"M\" */\n      0x4d00000000000000000000000000000000000000000000000000000000000000\n        /* \"contracts/RomanToInteger.sol\":1386:1387  c */\n      dup3\n        /* \"contracts/RomanToInteger.sol\":1386:1394  c == \"M\" */\n      not(0xffffffffffffffffffffffffffffffffffffffffffffffffffffffffffffff)\n      and\n      sub\n        /* \"contracts/RomanToInteger.sol\":1382:1407  if (c == \"M\") return 1000 */\n      tag_54\n      jumpi\n        /* \"contracts/RomanToInteger.sol\":1403:1407  1000 */\n      0x03e8\n        /* \"contracts/RomanToInteger.sol\":1396:1407  return 1000 */\n      swap1\n      pop\n      jump(tag_47)\n        /* \"contracts/RomanToInteger.sol\":1382:1407  if (c == \"M\") return 1000 */\n    tag_54:\n        /* \"contracts/RomanToInteger.sol\":1425:1426  0 */\n      0x00\n        /* \"contracts/RomanToInteger.sol\":1418:1426  return 0 */\n      swap1\n      pop\n        /* \"contracts/RomanToInteger.sol\":1107:1450  function _valueOf(bytes1 c) internal pure returns (uint256) {... */\n    tag_47:\n      swap2\n      swap1\n      pop\n      jump\t// out\n        /* \"#utility.yul\":88:205   */\n    tag_56:\n        /* \"#utility.yul\":197:198   */\n      0x00\n        /* \"#utility.yul\":194:195   */\n      dup1\n        /* \"#utility.yul\":187:199   */\n      revert\n        /* \"#utility.yul\":211:328   */\n    tag_57:\n        /* \"#utility.yul\":320:321   */\n      0x00\n        /* \"#utility.yul\":317:318   */\n      dup1\n        /* \"#utility.yul\":310:322   */\n      revert\n        /* \"#utility.yul\":334:451   */\n    tag_58:\n        /* \"#utility.yul\":443:444   */\n      0x00\n        /* \"#utility.yul\":440:441   */\n      dup1\n        /* \"#utility.yul\":433:445   */\n      revert\n        /* \"#utility.yul\":457:574   */\n    tag_59:\n        /* \"#utility.yul\":566:567   */\n      0x00\n        /* \"#utility.yul\":563:564   */\n      dup1\n        /* \"#utility.yul\":556:568   */\n      revert\n        /* \"#utility.yul\":580:697   */\n    tag_60:\n        /* \"#utility.yul\":689:690   */\n      0x00\n        /* \"#utility.yul\":686:687   */\n      dup1\n        /* \"#utility.yul\":679:691   */\n      revert\n        /* \"#utility.yul\":717:1270   */\n    tag_61:\n        /* \"#utility.yul\":775:783   */\n      0x00\n        /* \"#utility.yul\":785:791   */\n      dup1\n        /* \"#utility.yul\":835:838   */\n      dup4\n        /* \"#utility.yul\":828:832   */\n      0x1f\n        /* \"#utility.yul\":820:826   */\n      dup5\n        /* \"#utility.yul\":816:833   */\n      add\n        /* \"#utility.yul\":812:839   */\n      slt\n        /* \"#utility.yul\":802:924   */\n      tag_80\n      jumpi\n        /* \"#utility.yul\":843:922   */\n      tag_81\n      tag_58\n      jump\t// in\n    tag_81:\n        /* \"#utility.yul\":802:924   */\n    tag_80:\n        /* \"#utility.yul\":956:962   */\n      dup3\n        /* \"#utility.yul\":943:963   */\n      calldataload\n        /* \"#utility.yul\":933:963   */\n      swap1\n      pop\n        /* \"#utility.yul\":986:1004   */\n      0xffffffffffffffff\n        /* \"#utility.yul\":978:984   */\n      dup2\n        /* \"#utility.yul\":975:1005   */\n      gt\n        /* \"#utility.yul\":972:1089   */\n      iszero\n      tag_82\n      jumpi\n        /* \"#utility.yul\":1008:1087   */\n      tag_83\n      tag_59\n      jump\t// in\n    tag_83:\n        /* \"#utility.yul\":972:1089   */\n    tag_82:\n        /* \"#utility.yul\":1122:1126   */\n      0x20\n        /* \"#utility.yul\":1114:1120   */\n      dup4\n        /* \"#utility.yul\":1110:1127   */\n      add\n        /* \"#utility.yul\":1098:1127   */\n      swap2\n      pop\n        /* \"#utility.yul\":1176:1179   */\n      dup4\n        /* \"#utility.yul\":1168:1172   */\n      0x01\n        /* \"#utility.yul\":1160:1166   */\n      dup3\n        /* \"#utility.yul\":1156:1173   */\n      mul\n        /* \"#utility.yul\":1146:1154   */\n      dup4\n        /* \"#utility.yul\":1142:1174   */\n      add\n        /* \"#utility.yul\":1139:1180   */\n      gt\n        /* \"#utility.yul\":1136:1264   */\n      iszero\n      tag_84\n      jumpi\n        /* \"#utility.yul\":1183:1262   */\n      tag_85\n      tag_60\n      jump\t// in\n    tag_85:\n        /* \"#utility.yul\":1136:1264   */\n    tag_84:\n        /* \"#utility.yul\":717:1270   */\n      swap3\n      pop\n      swap3\n      swap1\n      pop\n      jump\t// out\n        /* \"#utility.yul\":1276:1805   */\n    tag_6:\n        /* \"#utility.yul\":1347:1353   */\n      0x00\n        /* \"#utility.yul\":1355:1361   */\n      dup1\n        /* \"#utility.yul\":1404:1406   */\n      0x20\n        /* \"#utility.yul\":1392:1401   */\n      dup4\n        /* \"#utility.yul\":1383:1390   */\n      dup6\n        /* \"#utility.yul\":1379:1402   */\n      sub\n        /* \"#utility.yul\":1375:1407   */\n      slt\n        /* \"#utility.yul\":1372:1491   */\n      iszero\n      tag_87\n      jumpi\n        /* \"#utility.yul\":1410:1489   */\n      tag_88\n      tag_56\n      jump\t// in\n    tag_88:\n        /* \"#utility.yul\":1372:1491   */\n    tag_87:\n        /* \"#utility.yul\":1558:1559   */\n      0x00\n        /* \"#utility.yul\":1547:1556   */\n      dup4\n        /* \"#utility.yul\":1543:1560   */\n      add\n        /* \"#utility.yul\":1530:1561   */\n      calldataload\n        /* \"#utility.yul\":1588:1606   */\n      0xffffffffffffffff\n        /* \"#utility.yul\":1580:1586   */\n      dup2\n        /* \"#utility.yul\":1577:1607   */\n      gt\n        /* \"#utility.yul\":1574:1691   */\n      iszero\n      tag_89\n      jumpi\n        /* \"#utility.yul\":1610:1689   */\n      tag_90\n      tag_57\n      jump\t// in\n    tag_90:\n        /* \"#utility.yul\":1574:1691   */\n    tag_89:\n        /* \"#utility.yul\":1723:1788   */\n      tag_91\n        /* \"#utility.yul\":1780:1787   */\n      dup6\n        /* \"#utility.yul\":1771:1777   */\n      dup3\n        /* \"#utility.yul\":1760:1769   */\n      dup7\n        /* \"#utility.yul\":1756:1778   */\n      add\n        /* \"#utility.yul\":1723:1788   */\n      tag_61\n      jump\t// in\n    tag_91:\n        /* \"#utility.yul\":1705:1788   */\n      swap3\n      pop\n      swap3\n      pop\n        /* \"#utility.yul\":1501:1798   */\n      pop\n        /* \"#utility.yul\":1276:1805   */\n      swap3\n      pop\n      swap3\n      swap1\n      pop\n      jump\t// out\n        /* \"#utility.yul\":1811:1888   */\n    tag_62:\n        /* \"#utility.yul\":1848:1855   */\n      0x00\n        /* \"#utility.yul\":1877:1882   */\n      dup2\n        /* \"#utility.yul\":1866:1882   */\n      swap1\n      pop\n        /* \"#utility.yul\":1811:1888   */\n      swap2\n      swap1\n      pop\n      jump\t// out\n        /* \"#utility.yul\":1894:2012   */\n    tag_63:\n        /* \"#utility.yul\":1981:2005   */\n      tag_94\n        /* \"#utility.yul\":1999:2004   */\n      dup2\n        /* \"#utility.yul\":1981:2005   */\n      tag_62\n      jump\t// in\n    tag_94:\n        /* \"#utility.yul\":1976:1979   */\n      dup3\n        /* \"#utility.yul\":1969:2006   */\n      mstore\n        /* \"#utility.yul\":1894:2012   */\n      pop\n      pop\n      jump\t// out\n        /* \"#utility.yul\":2018:2240   */\n    tag_9:\n        /* \"#utility.yul\":2111:2115   */\n      0x00\n        /* \"#utility.yul\":2149:2151   */\n      0x20\n        /* \"#utility.yul\":2138:2147   */\n      dup3\n        /* \"#utility.yul\":2134:2152   */\n      add\n        /* \"#utility.yul\":2126:2152   */\n      swap1\n      pop\n        /* \"#utility.yul\":2162:2233   */\n      tag_96\n        /* \"#utility.yul\":2230:2231   */\n      0x00\n        /* \"#utility.yul\":2219:2228   */\n      dup4\n        /* \"#utility.yul\":2215:2232   */\n      add\n        /* \"#utility.yul\":2206:2212   */\n      dup5\n        /* \"#utility.yul\":2162:2233   */\n      tag_63\n      jump\t// in\n    tag_96:\n        /* \"#utility.yul\":2018:2240   */\n      swap3\n      swap2\n      pop\n      pop\n      jump\t// out\n        /* \"#utility.yul\":2246:2415   */\n    tag_64:\n        /* \"#utility.yul\":2330:2341   */\n      0x00\n        /* \"#utility.yul\":2364:2370   */\n      dup3\n        /* \"#utility.yul\":2359:2362   */\n      dup3\n        /* \"#utility.yul\":2352:2371   */\n      mstore\n        /* \"#utility.yul\":2404:2408   */\n      0x20\n        /* \"#utility.yul\":2399:2402   */\n      dup3\n        /* \"#utility.yul\":2395:2409   */\n      add\n        /* \"#utility.yul\":2380:2409   */\n      swap1\n      pop\n        /* \"#utility.yul\":2246:2415   */\n      swap3\n      swap2\n      pop\n      pop\n      jump\t// out\n        /* \"#utility.yul\":2421:2583   */\n    tag_65:\n        /* \"#utility.yul\":2561:2575   */\n      0x456d70747920737472696e670000000000000000000000000000000000000000\n        /* \"#utility.yul\":2557:2558   */\n      0x00\n        /* \"#utility.yul\":2549:2555   */\n      dup3\n        /* \"#utility.yul\":2545:2559   */\n      add\n        /* \"#utility.yul\":2538:2576   */\n      mstore\n        /* \"#utility.yul\":2421:2583   */\n      pop\n      jump\t// out\n        /* \"#utility.yul\":2589:2955   */\n    tag_66:\n        /* \"#utility.yul\":2731:2734   */\n      0x00\n        /* \"#utility.yul\":2752:2819   */\n      tag_100\n        /* \"#utility.yul\":2816:2818   */\n      0x0c\n        /* \"#utility.yul\":2811:2814   */\n      dup4\n        /* \"#utility.yul\":2752:2819   */\n      tag_64\n      jump\t// in\n    tag_100:\n        /* \"#utility.yul\":2745:2819   */\n      swap2\n      pop\n        /* \"#utility.yul\":2828:2921   */\n      tag_101\n        /* \"#utility.yul\":2917:2920   */\n      dup3\n        /* \"#utility.yul\":2828:2921   */\n      tag_65\n      jump\t// in\n    tag_101:\n        /* \"#utility.yul\":2946:2948   */\n      0x20\n        /* \"#utility.yul\":2941:2944   */\n      dup3\n        /* \"#utility.yul\":2937:2949   */\n      add\n        /* \"#utility.yul\":2930:2949   */\n      swap1\n      pop\n        /* \"#utility.yul\":2589:2955   */\n      swap2\n      swap1\n      pop\n      jump\t// out\n        /* \"#utility.yul\":2961:3380   */\n    tag_13:\n        /* \"#utility.yul\":3127:3131   */\n      0x00\n        /* \"#utility.yul\":3165:3167   */\n      0x20\n        /* \"#utility.yul\":3154:3163   */\n      dup3\n        /* \"#utility.yul\":3150:3168   */\n      add\n        /* \"#utility.yul\":3142:3168   */\n      swap1\n      pop\n        /* \"#utility.yul\":3214:3223   */\n      dup2\n        /* \"#utility.yul\":3208:3212   */\n      dup2\n        /* \"#utility.yul\":3204:3224   */\n      sub\n        /* \"#utility.yul\":3200:3201   */\n      0x00\n        /* \"#utility.yul\":3189:3198   */\n      dup4\n        /* \"#utility.yul\":3185:3202   */\n      add\n        /* \"#utility.yul\":3178:3225   */\n      mstore\n        /* \"#utility.yul\":3242:3373   */\n      tag_103\n        /* \"#utility.yul\":3368:3372   */\n      dup2\n        /* \"#utility.yul\":3242:3373   */\n      tag_66\n      jump\t// in\n    tag_103:\n        /* \"#utility.yul\":3234:3373   */\n      swap1\n      pop\n        /* \"#utility.yul\":2961:3380   */\n      swap2\n      swap1\n      pop\n      jump\t// out\n        /* \"#utility.yul\":3386:3566   */\n    tag_20:\n        /* \"#utility.yul\":3434:3511   */\n      0x4e487b7100000000000000000000000000000000000000000000000000000000\n        /* \"#utility.yul\":3431:3432   */\n      0x00\n        /* \"#utility.yul\":3424:3512   */\n      mstore\n        /* \"#utility.yul\":3531:3535   */\n      0x32\n        /* \"#utility.yul\":3528:3529   */\n      0x04\n        /* \"#utility.yul\":3521:3536   */\n      mstore\n        /* \"#utility.yul\":3555:3559   */\n      0x24\n        /* \"#utility.yul\":3552:3553   */\n      0x00\n        /* \"#utility.yul\":3545:3560   */\n      revert\n        /* \"#utility.yul\":3572:3740   */\n    tag_67:\n        /* \"#utility.yul\":3712:3732   */\n      0x496e76616c696420526f6d616e20636861720000000000000000000000000000\n        /* \"#utility.yul\":3708:3709   */\n      0x00\n        /* \"#utility.yul\":3700:3706   */\n      dup3\n        /* \"#utility.yul\":3696:3710   */\n      add\n        /* \"#utility.yul\":3689:3733   */\n      mstore\n        /* \"#utility.yul\":3572:3740   */\n      pop\n      jump\t// out\n        /* \"#utility.yul\":3746:4112   */\n    tag_68:\n        /* \"#utility.yul\":3888:3891   */\n      0x00\n        /* \"#utility.yul\":3909:3976   */\n      tag_107\n        /* \"#utility.yul\":3973:3975   */\n      0x12\n        /* \"#utility.yul\":3968:3971   */\n      dup4\n        /* \"#utility.yul\":3909:3976   */\n      tag_64\n      jump\t// in\n    tag_107:\n        /* \"#utility.yul\":3902:3976   */\n      swap2\n      pop\n        /* \"#utility.yul\":3985:4078   */\n      tag_108\n        /* \"#utility.yul\":4074:4077   */\n      dup3\n        /* \"#utility.yul\":3985:4078   */\n      tag_67\n      jump\t// in\n    tag_108:\n        /* \"#utility.yul\":4103:4105   */\n      0x20\n        /* \"#utility.yul\":4098:4101   */\n      dup3\n        /* \"#utility.yul\":4094:4106   */\n      add\n        /* \"#utility.yul\":4087:4106   */\n      swap1\n      pop\n        /* \"#utility.yul\":3746:4112   */\n      swap2\n      swap1\n      pop\n      jump\t// out\n        /* \"#utility.yul\":4118:4537   */\n    tag_24:\n        /* \"#utility.yul\":4284:4288   */\n      0x00\n        /* \"#utility.yul\":4322:4324   */\n      0x20\n        /* \"#utility.yul\":4311:4320   */\n      dup3\n        /* \"#utility.yul\":4307:4325   */\n      add\n        /* \"#utility.yul\":4299:4325   */\n      swap1\n      pop\n        /* \"#utility.yul\":4371:4380   */\n      dup2\n        /* \"#utility.yul\":4365:4369   */\n      dup2\n        /* \"#utility.yul\":4361:4381   */\n      sub\n        /* \"#utility.yul\":4357:4358   */\n      0x00\n        /* \"#utility.yul\":4346:4355   */\n      dup4\n        /* \"#utility.yul\":4342:4359   */\n      add\n        /* \"#utility.yul\":4335:4382   */\n      mstore\n        /* \"#utility.yul\":4399:4530   */\n      tag_110\n        /* \"#utility.yul\":4525:4529   */\n      dup2\n        /* \"#utility.yul\":4399:4530   */\n      tag_68\n      jump\t// in\n    tag_110:\n        /* \"#utility.yul\":4391:4530   */\n      swap1\n      pop\n        /* \"#utility.yul\":4118:4537   */\n      swap2\n      swap1\n      pop\n      jump\t// out\n        /* \"#utility.yul\":4543:4723   */\n    tag_69:\n        /* \"#utility.yul\":4591:4668   */\n      0x4e487b7100000000000000000000000000000000000000000000000000000000\n        /* \"#utility.yul\":4588:4589   */\n      0x00\n        /* \"#utility.yul\":4581:4669   */\n      mstore\n        /* \"#utility.yul\":4688:4692   */\n      0x11\n        /* \"#utility.yul\":4685:4686   */\n      0x04\n        /* \"#utility.yul\":4678:4693   */\n      mstore\n        /* \"#utility.yul\":4712:4716   */\n      0x24\n        /* \"#utility.yul\":4709:4710   */\n      0x00\n        /* \"#utility.yul\":4702:4717   */\n      revert\n        /* \"#utility.yul\":4729:4920   */\n    tag_26:\n        /* \"#utility.yul\":4769:4772   */\n      0x00\n        /* \"#utility.yul\":4788:4808   */\n      tag_113\n        /* \"#utility.yul\":4806:4807   */\n      dup3\n        /* \"#utility.yul\":4788:4808   */\n      tag_62\n      jump\t// in\n    tag_113:\n        /* \"#utility.yul\":4783:4808   */\n      swap2\n      pop\n        /* \"#utility.yul\":4822:4842   */\n      tag_114\n        /* \"#utility.yul\":4840:4841   */\n      dup4\n        /* \"#utility.yul\":4822:4842   */\n      tag_62\n      jump\t// in\n    tag_114:\n        /* \"#utility.yul\":4817:4842   */\n      swap3\n      pop\n        /* \"#utility.yul\":4865:4866   */\n      dup3\n        /* \"#utility.yul\":4862:4863   */\n      dup3\n        /* \"#utility.yul\":4858:4867   */\n      add\n        /* \"#utility.yul\":4851:4867   */\n      swap1\n      pop\n        /* \"#utility.yul\":4886:4889   */\n      dup1\n        /* \"#utility.yul\":4883:4884   */\n      dup3\n        /* \"#utility.yul\":4880:4890   */\n      gt\n        /* \"#utility.yul\":4877:4913   */\n      iszero\n      tag_115\n      jumpi\n        /* \"#utility.yul\":4893:4911   */\n      tag_116\n      tag_69\n      jump\t// in\n    tag_116:\n        /* \"#utility.yul\":4877:4913   */\n    tag_115:\n        /* \"#utility.yul\":4729:4920   */\n      swap3\n      swap2\n      pop\n      pop\n      jump\t// out\n        /* \"#utility.yul\":4926:5120   */\n    tag_36:\n        /* \"#utility.yul\":4966:4970   */\n      0x00\n        /* \"#utility.yul\":4986:5006   */\n      tag_118\n        /* \"#utility.yul\":5004:5005   */\n      dup3\n        /* \"#utility.yul\":4986:5006   */\n      tag_62\n      jump\t// in\n    tag_118:\n        /* \"#utility.yul\":4981:5006   */\n      swap2\n      pop\n        /* \"#utility.yul\":5020:5040   */\n      tag_119\n        /* \"#utility.yul\":5038:5039   */\n      dup4\n        /* \"#utility.yul\":5020:5040   */\n      tag_62\n      jump\t// in\n    tag_119:\n        /* \"#utility.yul\":5015:5040   */\n      swap3\n      pop\n        /* \"#utility.yul\":5064:5065   */\n      dup3\n        /* \"#utility.yul\":5061:5062   */\n      dup3\n        /* \"#utility.yul\":5057:5066   */\n      sub\n        /* \"#utility.yul\":5049:5066   */\n      swap1\n      pop\n        /* \"#utility.yul\":5088:5089   */\n      dup2\n        /* \"#utility.yul\":5082:5086   */\n      dup2\n        /* \"#utility.yul\":5079:5090   */\n      gt\n        /* \"#utility.yul\":5076:5113   */\n      iszero\n      tag_120\n      jumpi\n        /* \"#utility.yul\":5093:5111   */\n      tag_121\n      tag_69\n      jump\t// in\n    tag_121:\n        /* \"#utility.yul\":5076:5113   */\n    tag_120:\n        /* \"#utility.yul\":4926:5120   */\n      swap3\n      swap2\n      pop\n      pop\n      jump\t// out\n        /* \"#utility.yul\":5126:5359   */\n    tag_39:\n        /* \"#utility.yul\":5165:5168   */\n      0x00\n        /* \"#utility.yul\":5188:5212   */\n      tag_123\n        /* \"#utility.yul\":5206:5211   */\n      dup3\n        /* \"#utility.yul\":5188:5212   */\n      tag_62\n      jump\t// in\n    tag_123:\n        /* \"#utility.yul\":5179:5212   */\n      swap2\n      pop\n        /* \"#utility.yul\":5234:5300   */\n      0xffffffffffffffffffffffffffffffffffffffffffffffffffffffffffffffff\n        /* \"#utility.yul\":5227:5232   */\n      dup3\n        /* \"#utility.yul\":5224:5301   */\n      sub\n        /* \"#utility.yul\":5221:5324   */\n      tag_124\n      jumpi\n        /* \"#utility.yul\":5304:5322   */\n      tag_125\n      tag_69\n      jump\t// in\n    tag_125:\n        /* \"#utility.yul\":5221:5324   */\n    tag_124:\n        /* \"#utility.yul\":5351:5352   */\n      0x01\n        /* \"#utility.yul\":5344:5349   */\n      dup3\n        /* \"#utility.yul\":5340:5353   */\n      add\n        /* \"#utility.yul\":5333:5353   */\n      swap1\n      pop\n        /* \"#utility.yul\":5126:5359   */\n      swap2\n      swap1\n      pop\n      jump\t// out\n        /* \"#utility.yul\":5365:5527   */\n    tag_70:\n        /* \"#utility.yul\":5505:5519   */\n      0x4f7574206f662072616e67650000000000000000000000000000000000000000\n        /* \"#utility.yul\":5501:5502   */\n      0x00\n        /* \"#utility.yul\":5493:5499   */\n      dup3\n        /* \"#utility.yul\":5489:5503   */\n      add\n        /* \"#utility.yul\":5482:5520   */\n      mstore\n        /* \"#utility.yul\":5365:5527   */\n      pop\n      jump\t// out\n        /* \"#utility.yul\":5533:5899   */\n    tag_71:\n        /* \"#utility.yul\":5675:5678   */\n      0x00\n        /* \"#utility.yul\":5696:5763   */\n      tag_128\n        /* \"#utility.yul\":5760:5762   */\n      0x0c\n        /* \"#utility.yul\":5755:5758   */\n      dup4\n        /* \"#utility.yul\":5696:5763   */\n      tag_64\n      jump\t// in\n    tag_128:\n        /* \"#utility.yul\":5689:5763   */\n      swap2\n      pop\n        /* \"#utility.yul\":5772:5865   */\n      tag_129\n        /* \"#utility.yul\":5861:5864   */\n      dup3\n        /* \"#utility.yul\":5772:5865   */\n      tag_70\n      jump\t// in\n    tag_129:\n        /* \"#utility.yul\":5890:5892   */\n      0x20\n        /* \"#utility.yul\":5885:5888   */\n      dup3\n        /* \"#utility.yul\":5881:5893   */\n      add\n        /* \"#utility.yul\":5874:5893   */\n      swap1\n      pop\n        /* \"#utility.yul\":5533:5899   */\n      swap2\n      swap1\n      pop\n      jump\t// out\n        /* \"#utility.yul\":5905:6324   */\n    tag_46:\n        /* \"#utility.yul\":6071:6075   */\n      0x00\n        /* \"#utility.yul\":6109:6111   */\n      0x20\n        /* \"#utility.yul\":6098:6107   */\n      dup3\n        /* \"#utility.yul\":6094:6112   */\n      add\n        /* \"#utility.yul\":6086:6112   */\n      swap1\n      pop\n        /* \"#utility.yul\":6158:6167   */\n      dup2\n        /* \"#utility.yul\":6152:6156   */\n      dup2\n        /* \"#utility.yul\":6148:6168   */\n      sub\n        /* \"#utility.yul\":6144:6145   */\n      0x00\n        /* \"#utility.yul\":6133:6142   */\n      dup4\n        /* \"#utility.yul\":6129:6146   */\n      add\n        /* \"#utility.yul\":6122:6169   */\n      mstore\n        /* \"#utility.yul\":6186:6317   */\n      tag_131\n        /* \"#utility.yul\":6312:6316   */\n      dup2\n        /* \"#utility.yul\":6186:6317   */\n      tag_71\n      jump\t// in\n    tag_131:\n        /* \"#utility.yul\":6178:6317   */\n      swap1\n      pop\n        /* \"#utility.yul\":5905:6324   */\n      swap2\n      swap1\n      pop\n      jump\t// out\n\n    auxdata: 0xa264697066735822122067de634a0fb78104dc58da4a2859fd57c1c0b7ed3d546fb26162ead2c5e4fc9764736f6c634300081a0033\n}\n",
				"bytecode": {
					"linkReferences": {},
					"object": "6080604052348015600e575f80fd5b5061084f8061001c5f395ff3fe608060405234801561000f575f80fd5b5060043610610029575f3560e01c806384df599f1461002d575b5f80fd5b6100476004803603810190610042919061054e565b61005d565b60405161005491906105b1565b60405180910390f35b5f8083838080601f0160208091040260200160405190810160405280939291908181526020018383808284375f81840152601f19601f8201169050808301925050505050505090505f8151116100e8576040517f08c379a00000000000000000000000000000000000000000000000000000000081526004016100df90610624565b60405180910390fd5b5f5b8151811015610243575f61011a83838151811061010a57610109610642565b5b602001015160f81c60f81b61029b565b90505f811161015e576040517f08c379a0000000000000000000000000000000000000000000000000000000008152600401610155906106b9565b60405180910390fd5b5f835160018461016e9190610704565b10156101eb576101a6846001856101859190610704565b8151811061019657610195610642565b5b602001015160f81c60f81b61029b565b90505f81116101ea576040517f08c379a00000000000000000000000000000000000000000000000000000000081526004016101e1906106b9565b60405180910390fd5b5b8181111561021f5781816101ff9190610737565b8561020a9190610704565b945082806102179061076a565b93505061022e565b818561022b9190610704565b94505b5050808061023b9061076a565b9150506100ea565b505f821180156102555750610f9f8211155b610294576040517f08c379a000000000000000000000000000000000000000000000000000000000815260040161028b906107fb565b60405180910390fd5b5092915050565b5f7f4900000000000000000000000000000000000000000000000000000000000000827effffffffffffffffffffffffffffffffffffffffffffffffffffffffffffff1916036102ee57600190506104e0565b7f5600000000000000000000000000000000000000000000000000000000000000827effffffffffffffffffffffffffffffffffffffffffffffffffffffffffffff19160361034057600590506104e0565b7f5800000000000000000000000000000000000000000000000000000000000000827effffffffffffffffffffffffffffffffffffffffffffffffffffffffffffff19160361039257600a90506104e0565b7f4c00000000000000000000000000000000000000000000000000000000000000827effffffffffffffffffffffffffffffffffffffffffffffffffffffffffffff1916036103e457603290506104e0565b7f4300000000000000000000000000000000000000000000000000000000000000827effffffffffffffffffffffffffffffffffffffffffffffffffffffffffffff19160361043657606490506104e0565b7f4400000000000000000000000000000000000000000000000000000000000000827effffffffffffffffffffffffffffffffffffffffffffffffffffffffffffff191603610489576101f490506104e0565b7f4d00000000000000000000000000000000000000000000000000000000000000827effffffffffffffffffffffffffffffffffffffffffffffffffffffffffffff1916036104dc576103e890506104e0565b5f90505b919050565b5f80fd5b5f80fd5b5f80fd5b5f80fd5b5f80fd5b5f8083601f84011261050e5761050d6104ed565b5b8235905067ffffffffffffffff81111561052b5761052a6104f1565b5b602083019150836001820283011115610547576105466104f5565b5b9250929050565b5f8060208385031215610564576105636104e5565b5b5f83013567ffffffffffffffff811115610581576105806104e9565b5b61058d858286016104f9565b92509250509250929050565b5f819050919050565b6105ab81610599565b82525050565b5f6020820190506105c45f8301846105a2565b92915050565b5f82825260208201905092915050565b7f456d70747920737472696e6700000000000000000000000000000000000000005f82015250565b5f61060e600c836105ca565b9150610619826105da565b602082019050919050565b5f6020820190508181035f83015261063b81610602565b9050919050565b7f4e487b71000000000000000000000000000000000000000000000000000000005f52603260045260245ffd5b7f496e76616c696420526f6d616e206368617200000000000000000000000000005f82015250565b5f6106a36012836105ca565b91506106ae8261066f565b602082019050919050565b5f6020820190508181035f8301526106d081610697565b9050919050565b7f4e487b71000000000000000000000000000000000000000000000000000000005f52601160045260245ffd5b5f61070e82610599565b915061071983610599565b9250828201905080821115610731576107306106d7565b5b92915050565b5f61074182610599565b915061074c83610599565b9250828203905081811115610764576107636106d7565b5b92915050565b5f61077482610599565b91507fffffffffffffffffffffffffffffffffffffffffffffffffffffffffffffffff82036107a6576107a56106d7565b5b600182019050919050565b7f4f7574206f662072616e676500000000000000000000000000000000000000005f82015250565b5f6107e5600c836105ca565b91506107f0826107b1565b602082019050919050565b5f6020820190508181035f830152610812816107d9565b905091905056fea264697066735822122067de634a0fb78104dc58da4a2859fd57c1c0b7ed3d546fb26162ead2c5e4fc9764736f6c634300081a0033",
					"opcodes": "PUSH1 0x80 PUSH1 0x40 MSTORE CALLVALUE DUP1 ISZERO PUSH1 0xE JUMPI PUSH0 DUP1 REVERT JUMPDEST POP PUSH2 0x84F DUP1 PUSH2 0x1C PUSH0 CODECOPY PUSH0 RETURN INVALID PUSH1 0x80 PUSH1 0x40 MSTORE CALLVALUE DUP1 ISZERO PUSH2 0xF JUMPI PUSH0 DUP1 REVERT JUMPDEST POP PUSH1 0x4 CALLDATASIZE LT PUSH2 0x29 JUMPI PUSH0 CALLDATALOAD PUSH1 0xE0 SHR DUP1 PUSH4 0x84DF599F EQ PUSH2 0x2D JUMPI JUMPDEST PUSH0 DUP1 REVERT JUMPDEST PUSH2 0x47 PUSH1 0x4 DUP1 CALLDATASIZE SUB DUP2 ADD SWAP1 PUSH2 0x42 SWAP2 SWAP1 PUSH2 0x54E JUMP JUMPDEST PUSH2 0x5D JUMP JUMPDEST PUSH1 0x40 MLOAD PUSH2 0x54 SWAP2 SWAP1 PUSH2 0x5B1 JUMP JUMPDEST PUSH1 0x40 MLOAD DUP1 SWAP2 SUB SWAP1 RETURN JUMPDEST PUSH0 DUP1 DUP4 DUP4 DUP1 DUP1 PUSH1 0x1F ADD PUSH1 0x20 DUP1 SWAP2 DIV MUL PUSH1 0x20 ADD PUSH1 0x40 MLOAD SWAP1 DUP2 ADD PUSH1 0x40 MSTORE DUP1 SWAP4 SWAP3 SWAP2 SWAP1 DUP2 DUP2 MSTORE PUSH1 0x20 ADD DUP4 DUP4 DUP1 DUP3 DUP5 CALLDATACOPY PUSH0 DUP2 DUP5 ADD MSTORE PUSH1 0x1F NOT PUSH1 0x1F DUP3 ADD AND SWAP1 POP DUP1 DUP4 ADD SWAP3 POP POP POP POP POP POP POP SWAP1 POP PUSH0 DUP2 MLOAD GT PUSH2 0xE8 JUMPI PUSH1 0x40 MLOAD PUSH32 0x8C379A000000000000000000000000000000000000000000000000000000000 DUP2 MSTORE PUSH1 0x4 ADD PUSH2 0xDF SWAP1 PUSH2 0x624 JUMP JUMPDEST PUSH1 0x40 MLOAD DUP1 SWAP2 SUB SWAP1 REVERT JUMPDEST PUSH0 JUMPDEST DUP2 MLOAD DUP2 LT ISZERO PUSH2 0x243 JUMPI PUSH0 PUSH2 0x11A DUP4 DUP4 DUP2 MLOAD DUP2 LT PUSH2 0x10A JUMPI PUSH2 0x109 PUSH2 0x642 JUMP JUMPDEST JUMPDEST PUSH1 0x20 ADD ADD MLOAD PUSH1 0xF8 SHR PUSH1 0xF8 SHL PUSH2 0x29B JUMP JUMPDEST SWAP1 POP PUSH0 DUP2 GT PUSH2 0x15E JUMPI PUSH1 0x40 MLOAD PUSH32 0x8C379A000000000000000000000000000000000000000000000000000000000 DUP2 MSTORE PUSH1 0x4 ADD PUSH2 0x155 SWAP1 PUSH2 0x6B9 JUMP JUMPDEST PUSH1 0x40 MLOAD DUP1 SWAP2 SUB SWAP1 REVERT JUMPDEST PUSH0 DUP4 MLOAD PUSH1 0x1 DUP5 PUSH2 0x16E SWAP2 SWAP1 PUSH2 0x704 JUMP JUMPDEST LT ISZERO PUSH2 0x1EB JUMPI PUSH2 0x1A6 DUP5 PUSH1 0x1 DUP6 PUSH2 0x185 SWAP2 SWAP1 PUSH2 0x704 JUMP JUMPDEST DUP2 MLOAD DUP2 LT PUSH2 0x196 JUMPI PUSH2 0x195 PUSH2 0x642 JUMP JUMPDEST JUMPDEST PUSH1 0x20 ADD ADD MLOAD PUSH1 0xF8 SHR PUSH1 0xF8 SHL PUSH2 0x29B JUMP JUMPDEST SWAP1 POP PUSH0 DUP2 GT PUSH2 0x1EA JUMPI PUSH1 0x40 MLOAD PUSH32 0x8C379A000000000000000000000000000000000000000000000000000000000 DUP2 MSTORE PUSH1 0x4 ADD PUSH2 0x1E1 SWAP1 PUSH2 0x6B9 JUMP JUMPDEST PUSH1 0x40 MLOAD DUP1 SWAP2 SUB SWAP1 REVERT JUMPDEST JUMPDEST DUP2 DUP2 GT ISZERO PUSH2 0x21F JUMPI DUP2 DUP2 PUSH2 0x1FF SWAP2 SWAP1 PUSH2 0x737 JUMP JUMPDEST DUP6 PUSH2 0x20A SWAP2 SWAP1 PUSH2 0x704 JUMP JUMPDEST SWAP5 POP DUP3 DUP1 PUSH2 0x217 SWAP1 PUSH2 0x76A JUMP JUMPDEST SWAP4 POP POP PUSH2 0x22E JUMP JUMPDEST DUP2 DUP6 PUSH2 0x22B SWAP2 SWAP1 PUSH2 0x704 JUMP JUMPDEST SWAP5 POP JUMPDEST POP POP DUP1 DUP1 PUSH2 0x23B SWAP1 PUSH2 0x76A JUMP JUMPDEST SWAP2 POP POP PUSH2 0xEA JUMP JUMPDEST POP PUSH0 DUP3 GT DUP1 ISZERO PUSH2 0x255 JUMPI POP PUSH2 0xF9F DUP3 GT ISZERO JUMPDEST PUSH2 0x294 JUMPI PUSH1 0x40 MLOAD PUSH32 0x8C379A000000000000000000000000000000000000000000000000000000000 DUP2 MSTORE PUSH1 0x4 ADD PUSH2 0x28B SWAP1 PUSH2 0x7FB JUMP JUMPDEST PUSH1 0x40 MLOAD DUP1 SWAP2 SUB SWAP1 REVERT JUMPDEST POP SWAP3 SWAP2 POP POP JUMP JUMPDEST PUSH0 PUSH32 0x4900000000000000000000000000000000000000000000000000000000000000 DUP3 PUSH31 0xFFFFFFFFFFFFFFFFFFFFFFFFFFFFFFFFFFFFFFFFFFFFFFFFFFFFFFFFFFFFFF NOT AND SUB PUSH2 0x2EE JUMPI PUSH1 0x1 SWAP1 POP PUSH2 0x4E0 JUMP JUMPDEST PUSH32 0x5600000000000000000000000000000000000000000000000000000000000000 DUP3 PUSH31 0xFFFFFFFFFFFFFFFFFFFFFFFFFFFFFFFFFFFFFFFFFFFFFFFFFFFFFFFFFFFFFF NOT AND SUB PUSH2 0x340 JUMPI PUSH1 0x5 SWAP1 POP PUSH2 0x4E0 JUMP JUMPDEST PUSH32 0x5800000000000000000000000000000000000000000000000000000000000000 DUP3 PUSH31 0xFFFFFFFFFFFFFFFFFFFFFFFFFFFFFFFFFFFFFFFFFFFFFFFFFFFFFFFFFFFFFF NOT AND SUB PUSH2 0x392 JUMPI PUSH1 0xA SWAP1 POP PUSH2 0x4E0 JUMP JUMPDEST PUSH32 0x4C00000000000000000000000000000000000000000000000000000000000000 DUP3 PUSH31 0xFFFFFFFFFFFFFFFFFFFFFFFFFFFFFFFFFFFFFFFFFFFFFFFFFFFFFFFFFFFFFF NOT AND SUB PUSH2 0x3E4 JUMPI PUSH1 0x32 SWAP1 POP PUSH2 0x4E0 JUMP JUMPDEST PUSH32 0x4300000000000000000000000000000000000000000000000000000000000000 DUP3 PUSH31 0xFFFFFFFFFFFFFFFFFFFFFFFFFFFFFFFFFFFFFFFFFFFFFFFFFFFFFFFFFFFFFF NOT AND SUB PUSH2 0x436 JUMPI PUSH1 0x64 SWAP1 POP PUSH2 0x4E0 JUMP JUMPDEST PUSH32 0x4400000000000000000000000000000000000000000000000000000000000000 DUP3 PUSH31 0xFFFFFFFFFFFFFFFFFFFFFFFFFFFFFFFFFFFFFFFFFFFFFFFFFFFFFFFFFFFFFF NOT AND SUB PUSH2 0x489 JUMPI PUSH2 0x1F4 SWAP1 POP PUSH2 0x4E0 JUMP JUMPDEST PUSH32 0x4D00000000000000000000000000000000000000000000000000000000000000 DUP3 PUSH31 0xFFFFFFFFFFFFFFFFFFFFFFFFFFFFFFFFFFFFFFFFFFFFFFFFFFFFFFFFFFFFFF NOT AND SUB PUSH2 0x4DC JUMPI PUSH2 0x3E8 SWAP1 POP PUSH2 0x4E0 JUMP JUMPDEST PUSH0 SWAP1 POP JUMPDEST SWAP2 SWAP1 POP JUMP JUMPDEST PUSH0 DUP1 REVERT JUMPDEST PUSH0 DUP1 REVERT JUMPDEST PUSH0 DUP1 REVERT JUMPDEST PUSH0 DUP1 REVERT JUMPDEST PUSH0 DUP1 REVERT JUMPDEST PUSH0 DUP1 DUP4 PUSH1 0x1F DUP5 ADD SLT PUSH2 0x50E JUMPI PUSH2 0x50D PUSH2 0x4ED JUMP JUMPDEST JUMPDEST DUP3 CALLDATALOAD SWAP1 POP PUSH8 0xFFFFFFFFFFFFFFFF DUP2 GT ISZERO PUSH2 0x52B JUMPI PUSH2 0x52A PUSH2 0x4F1 JUMP JUMPDEST JUMPDEST PUSH1 0x20 DUP4 ADD SWAP2 POP DUP4 PUSH1 0x1 DUP3 MUL DUP4 ADD GT ISZERO PUSH2 0x547 JUMPI PUSH2 0x546 PUSH2 0x4F5 JUMP JUMPDEST JUMPDEST SWAP3 POP SWAP3 SWAP1 POP JUMP JUMPDEST PUSH0 DUP1 PUSH1 0x20 DUP4 DUP6 SUB SLT ISZERO PUSH2 0x564 JUMPI PUSH2 0x563 PUSH2 0x4E5 JUMP JUMPDEST JUMPDEST PUSH0 DUP4 ADD CALLDATALOAD PUSH8 0xFFFFFFFFFFFFFFFF DUP2 GT ISZERO PUSH2 0x581 JUMPI PUSH2 0x580 PUSH2 0x4E9 JUMP JUMPDEST JUMPDEST PUSH2 0x58D DUP6 DUP3 DUP7 ADD PUSH2 0x4F9 JUMP JUMPDEST SWAP3 POP SWAP3 POP POP SWAP3 POP SWAP3 SWAP1 POP JUMP JUMPDEST PUSH0 DUP2 SWAP1 POP SWAP2 SWAP1 POP JUMP JUMPDEST PUSH2 0x5AB DUP2 PUSH2 0x599 JUMP JUMPDEST DUP3 MSTORE POP POP JUMP JUMPDEST PUSH0 PUSH1 0x20 DUP3 ADD SWAP1 POP PUSH2 0x5C4 PUSH0 DUP4 ADD DUP5 PUSH2 0x5A2 JUMP JUMPDEST SWAP3 SWAP2 POP POP JUMP JUMPDEST PUSH0 DUP3 DUP3 MSTORE PUSH1 0x20 DUP3 ADD SWAP1 POP SWAP3 SWAP2 POP POP JUMP JUMPDEST PUSH32 0x456D70747920737472696E670000000000000000000000000000000000000000 PUSH0 DUP3 ADD MSTORE POP JUMP JUMPDEST PUSH0 PUSH2 0x60E PUSH1 0xC DUP4 PUSH2 0x5CA JUMP JUMPDEST SWAP2 POP PUSH2 0x619 DUP3 PUSH2 0x5DA JUMP JUMPDEST PUSH1 0x20 DUP3 ADD SWAP1 POP SWAP2 SWAP1 POP JUMP JUMPDEST PUSH0 PUSH1 0x20 DUP3 ADD SWAP1 POP DUP2 DUP2 SUB PUSH0 DUP4 ADD MSTORE PUSH2 0x63B DUP2 PUSH2 0x602 JUMP JUMPDEST SWAP1 POP SWAP2 SWAP1 POP JUMP JUMPDEST PUSH32 0x4E487B7100000000000000000000000000000000000000000000000000000000 PUSH0 MSTORE PUSH1 0x32 PUSH1 0x4 MSTORE PUSH1 0x24 PUSH0 REVERT JUMPDEST PUSH32 0x496E76616C696420526F6D616E20636861720000000000000000000000000000 PUSH0 DUP3 ADD MSTORE POP JUMP JUMPDEST PUSH0 PUSH2 0x6A3 PUSH1 0x12 DUP4 PUSH2 0x5CA JUMP JUMPDEST SWAP2 POP PUSH2 0x6AE DUP3 PUSH2 0x66F JUMP JUMPDEST PUSH1 0x20 DUP3 ADD SWAP1 POP SWAP2 SWAP1 POP JUMP JUMPDEST PUSH0 PUSH1 0x20 DUP3 ADD SWAP1 POP DUP2 DUP2 SUB PUSH0 DUP4 ADD MSTORE PUSH2 0x6D0 DUP2 PUSH2 0x697 JUMP JUMPDEST SWAP1 POP SWAP2 SWAP1 POP JUMP JUMPDEST PUSH32 0x4E487B7100000000000000000000000000000000000000000000000000000000 PUSH0 MSTORE PUSH1 0x11 PUSH1 0x4 MSTORE PUSH1 0x24 PUSH0 REVERT JUMPDEST PUSH0 PUSH2 0x70E DUP3 PUSH2 0x599 JUMP JUMPDEST SWAP2 POP PUSH2 0x719 DUP4 PUSH2 0x599 JUMP JUMPDEST SWAP3 POP DUP3 DUP3 ADD SWAP1 POP DUP1 DUP3 GT ISZERO PUSH2 0x731 JUMPI PUSH2 0x730 PUSH2 0x6D7 JUMP JUMPDEST JUMPDEST SWAP3 SWAP2 POP POP JUMP JUMPDEST PUSH0 PUSH2 0x741 DUP3 PUSH2 0x599 JUMP JUMPDEST SWAP2 POP PUSH2 0x74C DUP4 PUSH2 0x599 JUMP JUMPDEST SWAP3 POP DUP3 DUP3 SUB SWAP1 POP DUP2 DUP2 GT ISZERO PUSH2 0x764 JUMPI PUSH2 0x763 PUSH2 0x6D7 JUMP JUMPDEST JUMPDEST SWAP3 SWAP2 POP POP JUMP JUMPDEST PUSH0 PUSH2 0x774 DUP3 PUSH2 0x599 JUMP JUMPDEST SWAP2 POP PUSH32 0xFFFFFFFFFFFFFFFFFFFFFFFFFFFFFFFFFFFFFFFFFFFFFFFFFFFFFFFFFFFFFFFF DUP3 SUB PUSH2 0x7A6 JUMPI PUSH2 0x7A5 PUSH2 0x6D7 JUMP JUMPDEST JUMPDEST PUSH1 0x1 DUP3 ADD SWAP1 POP SWAP2 SWAP1 POP JUMP JUMPDEST PUSH32 0x4F7574206F662072616E67650000000000000000000000000000000000000000 PUSH0 DUP3 ADD MSTORE POP JUMP JUMPDEST PUSH0 PUSH2 0x7E5 PUSH1 0xC DUP4 PUSH2 0x5CA JUMP JUMPDEST SWAP2 POP PUSH2 0x7F0 DUP3 PUSH2 0x7B1 JUMP JUMPDEST PUSH1 0x20 DUP3 ADD SWAP1 POP SWAP2 SWAP1 POP JUMP JUMPDEST PUSH0 PUSH1 0x20 DUP3 ADD SWAP1 POP DUP2 DUP2 SUB PUSH0 DUP4 ADD MSTORE PUSH2 0x812 DUP2 PUSH2 0x7D9 JUMP JUMPDEST SWAP1 POP SWAP2 SWAP1 POP JUMP INVALID LOG2 PUSH5 0x6970667358 0x22 SLT KECCAK256 PUSH8 0xDE634A0FB78104DC PC 0xDA BLOBBASEFEE 0x28 MSIZE REVERT JUMPI 0xC1 0xC0 0xB7 0xED RETURNDATASIZE SLOAD PUSH16 0xB26162EAD2C5E4FC9764736F6C634300 ADDMOD BYTE STOP CALLER "
				},
				"gasEstimates": {
					"creation": {
						"codeDepositCost": "425400",
						"executionCost": "459",
						"totalCost": "425859"
					},
					"external": {
						"toInteger(string)": "infinite"
					},
					"internal": {
						"_valueOf(bytes1)": "262"
					}
				},
				"methodIdentifiers": {
					"toInteger(string)": "84df599f"
				}
			},
			"storageLayout": {
				"storage": [],
				"types": null
			},
			"userdoc": {
				"kind": "user",
				"methods": {},
				"version": 1
			}
		}
	}
}