{
	"contracts/MergeSortedArray.sol": {
		"MergeSortedArray": {
			"abi": [
				{
					"inputs": [],
					"name": "mergeSortedArray",
					"outputs": [
						{
							"internalType": "int8[]",
							"name": "",
							"type": "int8[]"
						}
					],
					"stateMutability": "pure",
					"type": "function"
				}
			],
			"devdoc": {
				"kind": "dev",
				"methods": {},
				"version": 1
			},
			"evm": {
				"assembly": "    /* \"contracts/MergeSortedArray.sol\":60:1201  contract MergeSortedArray{... */\n  mstore(0x40, 0x80)\n  callvalue\n  dup1\n  iszero\n  tag_1\n  jumpi\n  revert(0x00, 0x00)\ntag_1:\n  pop\n  dataSize(sub_0)\n  dup1\n  dataOffset(sub_0)\n  0x00\n  codecopy\n  0x00\n  return\nstop\n\nsub_0: assembly {\n        /* \"contracts/MergeSortedArray.sol\":60:1201  contract MergeSortedArray{... */\n      mstore(0x40, 0x80)\n      callvalue\n      dup1\n      iszero\n      tag_1\n      jumpi\n      revert(0x00, 0x00)\n    tag_1:\n      pop\n      jumpi(tag_2, lt(calldatasize, 0x04))\n      shr(0xe0, calldataload(0x00))\n      dup1\n      0xaca06282\n      eq\n      tag_3\n      jumpi\n    tag_2:\n      revert(0x00, 0x00)\n        /* \"contracts/MergeSortedArray.sol\":94:1198  function mergeSortedArray() public pure returns(int8[] memory ) {... */\n    tag_3:\n      tag_4\n      tag_5\n      jump\t// in\n    tag_4:\n      mload(0x40)\n      tag_6\n      swap2\n      swap1\n      tag_7\n      jump\t// in\n    tag_6:\n      mload(0x40)\n      dup1\n      swap2\n      sub\n      swap1\n      return\n    tag_5:\n        /* \"contracts/MergeSortedArray.sol\":142:155  int8[] memory */\n      0x60\n        /* \"contracts/MergeSortedArray.sol\":169:191  int8[] memory arrayOne */\n      0x00\n        /* \"contracts/MergeSortedArray.sol\":205:206  7 */\n      0x07\n        /* \"contracts/MergeSortedArray.sol\":194:207  new int8[](7) */\n      0xffffffffffffffff\n      dup2\n      gt\n      iszero\n      tag_9\n      jumpi\n      tag_10\n      tag_11\n      jump\t// in\n    tag_10:\n    tag_9:\n      mload(0x40)\n      swap1\n      dup1\n      dup3\n      mstore\n      dup1\n      0x20\n      mul\n      0x20\n      add\n      dup3\n      add\n      0x40\n      mstore\n      dup1\n      iszero\n      tag_12\n      jumpi\n      dup2\n      0x20\n      add\n      0x20\n      dup3\n      mul\n      dup1\n      calldatasize\n      dup4\n      calldatacopy\n      dup1\n      dup3\n      add\n      swap2\n      pop\n      pop\n      swap1\n      pop\n    tag_12:\n      pop\n        /* \"contracts/MergeSortedArray.sol\":169:207  int8[] memory arrayOne = new int8[](7) */\n      swap1\n      pop\n        /* \"contracts/MergeSortedArray.sol\":232:233  1 */\n      0x01\n        /* \"contracts/MergeSortedArray.sol\":218:226  arrayOne */\n      dup2\n        /* \"contracts/MergeSortedArray.sol\":227:228  0 */\n      0x00\n        /* \"contracts/MergeSortedArray.sol\":218:229  arrayOne[0] */\n      dup2\n      mload\n      dup2\n      lt\n      tag_13\n      jumpi\n      tag_14\n      tag_15\n      jump\t// in\n    tag_14:\n    tag_13:\n      0x20\n      mul\n      0x20\n      add\n      add\n        /* \"contracts/MergeSortedArray.sol\":218:233  arrayOne[0] = 1 */\n      swap1\n      0x00\n      signextend\n      swap1\n      dup2\n      0x00\n      signextend\n      dup2\n      mstore\n      pop\n      pop\n        /* \"contracts/MergeSortedArray.sol\":258:259  3 */\n      0x03\n        /* \"contracts/MergeSortedArray.sol\":244:252  arrayOne */\n      dup2\n        /* \"contracts/MergeSortedArray.sol\":253:254  1 */\n      0x01\n        /* \"contracts/MergeSortedArray.sol\":244:255  arrayOne[1] */\n      dup2\n      mload\n      dup2\n      lt\n      tag_16\n      jumpi\n      tag_17\n      tag_15\n      jump\t// in\n    tag_17:\n    tag_16:\n      0x20\n      mul\n      0x20\n      add\n      add\n        /* \"contracts/MergeSortedArray.sol\":244:259  arrayOne[1] = 3 */\n      swap1\n      0x00\n      signextend\n      swap1\n      dup2\n      0x00\n      signextend\n      dup2\n      mstore\n      pop\n      pop\n        /* \"contracts/MergeSortedArray.sol\":284:285  4 */\n      0x04\n        /* \"contracts/MergeSortedArray.sol\":270:278  arrayOne */\n      dup2\n        /* \"contracts/MergeSortedArray.sol\":279:280  2 */\n      0x02\n        /* \"contracts/MergeSortedArray.sol\":270:281  arrayOne[2] */\n      dup2\n      mload\n      dup2\n      lt\n      tag_18\n      jumpi\n      tag_19\n      tag_15\n      jump\t// in\n    tag_19:\n    tag_18:\n      0x20\n      mul\n      0x20\n      add\n      add\n        /* \"contracts/MergeSortedArray.sol\":270:285  arrayOne[2] = 4 */\n      swap1\n      0x00\n      signextend\n      swap1\n      dup2\n      0x00\n      signextend\n      dup2\n      mstore\n      pop\n      pop\n        /* \"contracts/MergeSortedArray.sol\":310:311  5 */\n      0x05\n        /* \"contracts/MergeSortedArray.sol\":296:304  arrayOne */\n      dup2\n        /* \"contracts/MergeSortedArray.sol\":305:306  3 */\n      0x03\n        /* \"contracts/MergeSortedArray.sol\":296:307  arrayOne[3] */\n      dup2\n      mload\n      dup2\n      lt\n      tag_20\n      jumpi\n      tag_21\n      tag_15\n      jump\t// in\n    tag_21:\n    tag_20:\n      0x20\n      mul\n      0x20\n      add\n      add\n        /* \"contracts/MergeSortedArray.sol\":296:311  arrayOne[3] = 5 */\n      swap1\n      0x00\n      signextend\n      swap1\n      dup2\n      0x00\n      signextend\n      dup2\n      mstore\n      pop\n      pop\n        /* \"contracts/MergeSortedArray.sol\":336:337  7 */\n      0x07\n        /* \"contracts/MergeSortedArray.sol\":322:330  arrayOne */\n      dup2\n        /* \"contracts/MergeSortedArray.sol\":331:332  4 */\n      0x04\n        /* \"contracts/MergeSortedArray.sol\":322:333  arrayOne[4] */\n      dup2\n      mload\n      dup2\n      lt\n      tag_22\n      jumpi\n      tag_23\n      tag_15\n      jump\t// in\n    tag_23:\n    tag_22:\n      0x20\n      mul\n      0x20\n      add\n      add\n        /* \"contracts/MergeSortedArray.sol\":322:337  arrayOne[4] = 7 */\n      swap1\n      0x00\n      signextend\n      swap1\n      dup2\n      0x00\n      signextend\n      dup2\n      mstore\n      pop\n      pop\n        /* \"contracts/MergeSortedArray.sol\":362:363  8 */\n      0x08\n        /* \"contracts/MergeSortedArray.sol\":348:356  arrayOne */\n      dup2\n        /* \"contracts/MergeSortedArray.sol\":357:358  5 */\n      0x05\n        /* \"contracts/MergeSortedArray.sol\":348:359  arrayOne[5] */\n      dup2\n      mload\n      dup2\n      lt\n      tag_24\n      jumpi\n      tag_25\n      tag_15\n      jump\t// in\n    tag_25:\n    tag_24:\n      0x20\n      mul\n      0x20\n      add\n      add\n        /* \"contracts/MergeSortedArray.sol\":348:363  arrayOne[5] = 8 */\n      swap1\n      0x00\n      signextend\n      swap1\n      dup2\n      0x00\n      signextend\n      dup2\n      mstore\n      pop\n      pop\n        /* \"contracts/MergeSortedArray.sol\":388:390  10 */\n      0x0a\n        /* \"contracts/MergeSortedArray.sol\":374:382  arrayOne */\n      dup2\n        /* \"contracts/MergeSortedArray.sol\":383:384  6 */\n      0x06\n        /* \"contracts/MergeSortedArray.sol\":374:385  arrayOne[6] */\n      dup2\n      mload\n      dup2\n      lt\n      tag_26\n      jumpi\n      tag_27\n      tag_15\n      jump\t// in\n    tag_27:\n    tag_26:\n      0x20\n      mul\n      0x20\n      add\n      add\n        /* \"contracts/MergeSortedArray.sol\":374:390  arrayOne[6] = 10 */\n      swap1\n      0x00\n      signextend\n      swap1\n      dup2\n      0x00\n      signextend\n      dup2\n      mstore\n      pop\n      pop\n        /* \"contracts/MergeSortedArray.sol\":403:425  int8[] memory arrayTwo */\n      0x00\n        /* \"contracts/MergeSortedArray.sol\":439:440  4 */\n      0x04\n        /* \"contracts/MergeSortedArray.sol\":428:441  new int8[](4) */\n      0xffffffffffffffff\n      dup2\n      gt\n      iszero\n      tag_28\n      jumpi\n      tag_29\n      tag_11\n      jump\t// in\n    tag_29:\n    tag_28:\n      mload(0x40)\n      swap1\n      dup1\n      dup3\n      mstore\n      dup1\n      0x20\n      mul\n      0x20\n      add\n      dup3\n      add\n      0x40\n      mstore\n      dup1\n      iszero\n      tag_30\n      jumpi\n      dup2\n      0x20\n      add\n      0x20\n      dup3\n      mul\n      dup1\n      calldatasize\n      dup4\n      calldatacopy\n      dup1\n      dup3\n      add\n      swap2\n      pop\n      pop\n      swap1\n      pop\n    tag_30:\n      pop\n        /* \"contracts/MergeSortedArray.sol\":403:441  int8[] memory arrayTwo = new int8[](4) */\n      swap1\n      pop\n        /* \"contracts/MergeSortedArray.sol\":466:467  2 */\n      0x02\n        /* \"contracts/MergeSortedArray.sol\":452:460  arrayTwo */\n      dup2\n        /* \"contracts/MergeSortedArray.sol\":461:462  0 */\n      0x00\n        /* \"contracts/MergeSortedArray.sol\":452:463  arrayTwo[0] */\n      dup2\n      mload\n      dup2\n      lt\n      tag_31\n      jumpi\n      tag_32\n      tag_15\n      jump\t// in\n    tag_32:\n    tag_31:\n      0x20\n      mul\n      0x20\n      add\n      add\n        /* \"contracts/MergeSortedArray.sol\":452:467  arrayTwo[0] = 2 */\n      swap1\n      0x00\n      signextend\n      swap1\n      dup2\n      0x00\n      signextend\n      dup2\n      mstore\n      pop\n      pop\n        /* \"contracts/MergeSortedArray.sol\":492:493  6 */\n      0x06\n        /* \"contracts/MergeSortedArray.sol\":478:486  arrayTwo */\n      dup2\n        /* \"contracts/MergeSortedArray.sol\":487:488  1 */\n      0x01\n        /* \"contracts/MergeSortedArray.sol\":478:489  arrayTwo[1] */\n      dup2\n      mload\n      dup2\n      lt\n      tag_33\n      jumpi\n      tag_34\n      tag_15\n      jump\t// in\n    tag_34:\n    tag_33:\n      0x20\n      mul\n      0x20\n      add\n      add\n        /* \"contracts/MergeSortedArray.sol\":478:493  arrayTwo[1] = 6 */\n      swap1\n      0x00\n      signextend\n      swap1\n      dup2\n      0x00\n      signextend\n      dup2\n      mstore\n      pop\n      pop\n        /* \"contracts/MergeSortedArray.sol\":518:519  7 */\n      0x07\n        /* \"contracts/MergeSortedArray.sol\":504:512  arrayTwo */\n      dup2\n        /* \"contracts/MergeSortedArray.sol\":513:514  2 */\n      0x02\n        /* \"contracts/MergeSortedArray.sol\":504:515  arrayTwo[2] */\n      dup2\n      mload\n      dup2\n      lt\n      tag_35\n      jumpi\n      tag_36\n      tag_15\n      jump\t// in\n    tag_36:\n    tag_35:\n      0x20\n      mul\n      0x20\n      add\n      add\n        /* \"contracts/MergeSortedArray.sol\":504:519  arrayTwo[2] = 7 */\n      swap1\n      0x00\n      signextend\n      swap1\n      dup2\n      0x00\n      signextend\n      dup2\n      mstore\n      pop\n      pop\n        /* \"contracts/MergeSortedArray.sol\":544:545  9 */\n      0x09\n        /* \"contracts/MergeSortedArray.sol\":530:538  arrayTwo */\n      dup2\n        /* \"contracts/MergeSortedArray.sol\":539:540  3 */\n      0x03\n        /* \"contracts/MergeSortedArray.sol\":530:541  arrayTwo[3] */\n      dup2\n      mload\n      dup2\n      lt\n      tag_37\n      jumpi\n      tag_38\n      tag_15\n      jump\t// in\n    tag_38:\n    tag_37:\n      0x20\n      mul\n      0x20\n      add\n      add\n        /* \"contracts/MergeSortedArray.sol\":530:545  arrayTwo[3] = 9 */\n      swap1\n      0x00\n      signextend\n      swap1\n      dup2\n      0x00\n      signextend\n      dup2\n      mstore\n      pop\n      pop\n        /* \"contracts/MergeSortedArray.sol\":558:578  int8[] memory result */\n      0x00\n        /* \"contracts/MergeSortedArray.sol\":608:616  arrayTwo */\n      dup2\n        /* \"contracts/MergeSortedArray.sol\":608:623  arrayTwo.length */\n      mload\n        /* \"contracts/MergeSortedArray.sol\":592:600  arrayOne */\n      dup4\n        /* \"contracts/MergeSortedArray.sol\":592:607  arrayOne.length */\n      mload\n        /* \"contracts/MergeSortedArray.sol\":592:623  arrayOne.length+arrayTwo.length */\n      tag_39\n      swap2\n      swap1\n      tag_40\n      jump\t// in\n    tag_39:\n        /* \"contracts/MergeSortedArray.sol\":581:624  new int8[](arrayOne.length+arrayTwo.length) */\n      0xffffffffffffffff\n      dup2\n      gt\n      iszero\n      tag_41\n      jumpi\n      tag_42\n      tag_11\n      jump\t// in\n    tag_42:\n    tag_41:\n      mload(0x40)\n      swap1\n      dup1\n      dup3\n      mstore\n      dup1\n      0x20\n      mul\n      0x20\n      add\n      dup3\n      add\n      0x40\n      mstore\n      dup1\n      iszero\n      tag_43\n      jumpi\n      dup2\n      0x20\n      add\n      0x20\n      dup3\n      mul\n      dup1\n      calldatasize\n      dup4\n      calldatacopy\n      dup1\n      dup3\n      add\n      swap2\n      pop\n      pop\n      swap1\n      pop\n    tag_43:\n      pop\n        /* \"contracts/MergeSortedArray.sol\":558:624  int8[] memory result = new int8[](arrayOne.length+arrayTwo.length) */\n      swap1\n      pop\n        /* \"contracts/MergeSortedArray.sol\":644:650  uint i */\n      0x00\n        /* \"contracts/MergeSortedArray.sol\":653:654  0 */\n      0x00\n        /* \"contracts/MergeSortedArray.sol\":644:654  uint i = 0 */\n      swap1\n      pop\n        /* \"contracts/MergeSortedArray.sol\":665:671  uint j */\n      0x00\n        /* \"contracts/MergeSortedArray.sol\":674:675  0 */\n      0x00\n        /* \"contracts/MergeSortedArray.sol\":665:675  uint j = 0 */\n      swap1\n      pop\n        /* \"contracts/MergeSortedArray.sol\":689:955  while (i<arrayOne.length&&j<arrayTwo.length){... */\n    tag_44:\n        /* \"contracts/MergeSortedArray.sol\":698:706  arrayOne */\n      dup5\n        /* \"contracts/MergeSortedArray.sol\":698:713  arrayOne.length */\n      mload\n        /* \"contracts/MergeSortedArray.sol\":696:697  i */\n      dup3\n        /* \"contracts/MergeSortedArray.sol\":696:713  i<arrayOne.length */\n      lt\n        /* \"contracts/MergeSortedArray.sol\":696:732  i<arrayOne.length&&j<arrayTwo.length */\n      dup1\n      iszero\n      tag_46\n      jumpi\n      pop\n        /* \"contracts/MergeSortedArray.sol\":717:725  arrayTwo */\n      dup4\n        /* \"contracts/MergeSortedArray.sol\":717:732  arrayTwo.length */\n      mload\n        /* \"contracts/MergeSortedArray.sol\":715:716  j */\n      dup2\n        /* \"contracts/MergeSortedArray.sol\":715:732  j<arrayTwo.length */\n      lt\n        /* \"contracts/MergeSortedArray.sol\":696:732  i<arrayOne.length&&j<arrayTwo.length */\n    tag_46:\n        /* \"contracts/MergeSortedArray.sol\":689:955  while (i<arrayOne.length&&j<arrayTwo.length){... */\n      iszero\n      tag_45\n      jumpi\n        /* \"contracts/MergeSortedArray.sol\":763:771  arrayTwo */\n      dup4\n        /* \"contracts/MergeSortedArray.sol\":772:773  j */\n      dup2\n        /* \"contracts/MergeSortedArray.sol\":763:774  arrayTwo[j] */\n      dup2\n      mload\n      dup2\n      lt\n      tag_47\n      jumpi\n      tag_48\n      tag_15\n      jump\t// in\n    tag_48:\n    tag_47:\n      0x20\n      mul\n      0x20\n      add\n      add\n      mload\n        /* \"contracts/MergeSortedArray.sol\":751:774  arrayOne[i]<arrayTwo[j] */\n      0x00\n      signextend\n        /* \"contracts/MergeSortedArray.sol\":751:759  arrayOne */\n      dup6\n        /* \"contracts/MergeSortedArray.sol\":760:761  i */\n      dup4\n        /* \"contracts/MergeSortedArray.sol\":751:762  arrayOne[i] */\n      dup2\n      mload\n      dup2\n      lt\n      tag_49\n      jumpi\n      tag_50\n      tag_15\n      jump\t// in\n    tag_50:\n    tag_49:\n      0x20\n      mul\n      0x20\n      add\n      add\n      mload\n        /* \"contracts/MergeSortedArray.sol\":751:774  arrayOne[i]<arrayTwo[j] */\n      0x00\n      signextend\n      slt\n        /* \"contracts/MergeSortedArray.sol\":748:944  if(arrayOne[i]<arrayTwo[j]){... */\n      iszero\n      tag_51\n      jumpi\n        /* \"contracts/MergeSortedArray.sol\":808:816  arrayOne */\n      dup5\n        /* \"contracts/MergeSortedArray.sol\":817:818  i */\n      dup3\n        /* \"contracts/MergeSortedArray.sol\":808:819  arrayOne[i] */\n      dup2\n      mload\n      dup2\n      lt\n      tag_52\n      jumpi\n      tag_53\n      tag_15\n      jump\t// in\n    tag_53:\n    tag_52:\n      0x20\n      mul\n      0x20\n      add\n      add\n      mload\n        /* \"contracts/MergeSortedArray.sol\":794:800  result */\n      dup4\n        /* \"contracts/MergeSortedArray.sol\":803:804  j */\n      dup3\n        /* \"contracts/MergeSortedArray.sol\":801:802  i */\n      dup5\n        /* \"contracts/MergeSortedArray.sol\":801:804  i+j */\n      tag_54\n      swap2\n      swap1\n      tag_40\n      jump\t// in\n    tag_54:\n        /* \"contracts/MergeSortedArray.sol\":794:805  result[i+j] */\n      dup2\n      mload\n      dup2\n      lt\n      tag_55\n      jumpi\n      tag_56\n      tag_15\n      jump\t// in\n    tag_56:\n    tag_55:\n      0x20\n      mul\n      0x20\n      add\n      add\n        /* \"contracts/MergeSortedArray.sol\":794:819  result[i+j] = arrayOne[i] */\n      swap1\n      0x00\n      signextend\n      swap1\n      dup2\n      0x00\n      signextend\n      dup2\n      mstore\n      pop\n      pop\n        /* \"contracts/MergeSortedArray.sol\":838:841  i++ */\n      dup2\n      dup1\n      tag_57\n      swap1\n      tag_58\n      jump\t// in\n    tag_57:\n      swap3\n      pop\n      pop\n        /* \"contracts/MergeSortedArray.sol\":748:944  if(arrayOne[i]<arrayTwo[j]){... */\n      jump(tag_59)\n    tag_51:\n        /* \"contracts/MergeSortedArray.sol\":895:903  arrayTwo */\n      dup4\n        /* \"contracts/MergeSortedArray.sol\":904:905  j */\n      dup2\n        /* \"contracts/MergeSortedArray.sol\":895:906  arrayTwo[j] */\n      dup2\n      mload\n      dup2\n      lt\n      tag_60\n      jumpi\n      tag_61\n      tag_15\n      jump\t// in\n    tag_61:\n    tag_60:\n      0x20\n      mul\n      0x20\n      add\n      add\n      mload\n        /* \"contracts/MergeSortedArray.sol\":881:887  result */\n      dup4\n        /* \"contracts/MergeSortedArray.sol\":890:891  j */\n      dup3\n        /* \"contracts/MergeSortedArray.sol\":888:889  i */\n      dup5\n        /* \"contracts/MergeSortedArray.sol\":888:891  i+j */\n      tag_62\n      swap2\n      swap1\n      tag_40\n      jump\t// in\n    tag_62:\n        /* \"contracts/MergeSortedArray.sol\":881:892  result[i+j] */\n      dup2\n      mload\n      dup2\n      lt\n      tag_63\n      jumpi\n      tag_64\n      tag_15\n      jump\t// in\n    tag_64:\n    tag_63:\n      0x20\n      mul\n      0x20\n      add\n      add\n        /* \"contracts/MergeSortedArray.sol\":881:906  result[i+j] = arrayTwo[j] */\n      swap1\n      0x00\n      signextend\n      swap1\n      dup2\n      0x00\n      signextend\n      dup2\n      mstore\n      pop\n      pop\n        /* \"contracts/MergeSortedArray.sol\":925:928  j++ */\n      dup1\n      dup1\n      tag_65\n      swap1\n      tag_58\n      jump\t// in\n    tag_65:\n      swap2\n      pop\n      pop\n        /* \"contracts/MergeSortedArray.sol\":748:944  if(arrayOne[i]<arrayTwo[j]){... */\n    tag_59:\n        /* \"contracts/MergeSortedArray.sol\":689:955  while (i<arrayOne.length&&j<arrayTwo.length){... */\n      jump(tag_44)\n    tag_45:\n        /* \"contracts/MergeSortedArray.sol\":965:1060  while (i<arrayOne.length){... */\n    tag_66:\n        /* \"contracts/MergeSortedArray.sol\":974:982  arrayOne */\n      dup5\n        /* \"contracts/MergeSortedArray.sol\":974:989  arrayOne.length */\n      mload\n        /* \"contracts/MergeSortedArray.sol\":972:973  i */\n      dup3\n        /* \"contracts/MergeSortedArray.sol\":972:989  i<arrayOne.length */\n      lt\n        /* \"contracts/MergeSortedArray.sol\":965:1060  while (i<arrayOne.length){... */\n      iszero\n      tag_67\n      jumpi\n        /* \"contracts/MergeSortedArray.sol\":1019:1027  arrayOne */\n      dup5\n        /* \"contracts/MergeSortedArray.sol\":1028:1029  i */\n      dup3\n        /* \"contracts/MergeSortedArray.sol\":1019:1030  arrayOne[i] */\n      dup2\n      mload\n      dup2\n      lt\n      tag_68\n      jumpi\n      tag_69\n      tag_15\n      jump\t// in\n    tag_69:\n    tag_68:\n      0x20\n      mul\n      0x20\n      add\n      add\n      mload\n        /* \"contracts/MergeSortedArray.sol\":1005:1011  result */\n      dup4\n        /* \"contracts/MergeSortedArray.sol\":1014:1015  j */\n      dup3\n        /* \"contracts/MergeSortedArray.sol\":1012:1013  i */\n      dup5\n        /* \"contracts/MergeSortedArray.sol\":1012:1015  i+j */\n      tag_70\n      swap2\n      swap1\n      tag_40\n      jump\t// in\n    tag_70:\n        /* \"contracts/MergeSortedArray.sol\":1005:1016  result[i+j] */\n      dup2\n      mload\n      dup2\n      lt\n      tag_71\n      jumpi\n      tag_72\n      tag_15\n      jump\t// in\n    tag_72:\n    tag_71:\n      0x20\n      mul\n      0x20\n      add\n      add\n        /* \"contracts/MergeSortedArray.sol\":1005:1030  result[i+j] = arrayOne[i] */\n      swap1\n      0x00\n      signextend\n      swap1\n      dup2\n      0x00\n      signextend\n      dup2\n      mstore\n      pop\n      pop\n        /* \"contracts/MergeSortedArray.sol\":1045:1048  i++ */\n      dup2\n      dup1\n      tag_73\n      swap1\n      tag_58\n      jump\t// in\n    tag_73:\n      swap3\n      pop\n      pop\n        /* \"contracts/MergeSortedArray.sol\":965:1060  while (i<arrayOne.length){... */\n      jump(tag_66)\n    tag_67:\n        /* \"contracts/MergeSortedArray.sol\":1070:1165  while (j<arrayTwo.length){... */\n    tag_74:\n        /* \"contracts/MergeSortedArray.sol\":1079:1087  arrayTwo */\n      dup4\n        /* \"contracts/MergeSortedArray.sol\":1079:1094  arrayTwo.length */\n      mload\n        /* \"contracts/MergeSortedArray.sol\":1077:1078  j */\n      dup2\n        /* \"contracts/MergeSortedArray.sol\":1077:1094  j<arrayTwo.length */\n      lt\n        /* \"contracts/MergeSortedArray.sol\":1070:1165  while (j<arrayTwo.length){... */\n      iszero\n      tag_75\n      jumpi\n        /* \"contracts/MergeSortedArray.sol\":1124:1132  arrayTwo */\n      dup4\n        /* \"contracts/MergeSortedArray.sol\":1133:1134  j */\n      dup2\n        /* \"contracts/MergeSortedArray.sol\":1124:1135  arrayTwo[j] */\n      dup2\n      mload\n      dup2\n      lt\n      tag_76\n      jumpi\n      tag_77\n      tag_15\n      jump\t// in\n    tag_77:\n    tag_76:\n      0x20\n      mul\n      0x20\n      add\n      add\n      mload\n        /* \"contracts/MergeSortedArray.sol\":1110:1116  result */\n      dup4\n        /* \"contracts/MergeSortedArray.sol\":1119:1120  j */\n      dup3\n        /* \"contracts/MergeSortedArray.sol\":1117:1118  i */\n      dup5\n        /* \"contracts/MergeSortedArray.sol\":1117:1120  i+j */\n      tag_78\n      swap2\n      swap1\n      tag_40\n      jump\t// in\n    tag_78:\n        /* \"contracts/MergeSortedArray.sol\":1110:1121  result[i+j] */\n      dup2\n      mload\n      dup2\n      lt\n      tag_79\n      jumpi\n      tag_80\n      tag_15\n      jump\t// in\n    tag_80:\n    tag_79:\n      0x20\n      mul\n      0x20\n      add\n      add\n        /* \"contracts/MergeSortedArray.sol\":1110:1135  result[i+j] = arrayTwo[j] */\n      swap1\n      0x00\n      signextend\n      swap1\n      dup2\n      0x00\n      signextend\n      dup2\n      mstore\n      pop\n      pop\n        /* \"contracts/MergeSortedArray.sol\":1150:1153  j++ */\n      dup1\n      dup1\n      tag_81\n      swap1\n      tag_58\n      jump\t// in\n    tag_81:\n      swap2\n      pop\n      pop\n        /* \"contracts/MergeSortedArray.sol\":1070:1165  while (j<arrayTwo.length){... */\n      jump(tag_74)\n    tag_75:\n        /* \"contracts/MergeSortedArray.sol\":1184:1190  result */\n      dup3\n        /* \"contracts/MergeSortedArray.sol\":1177:1190  return result */\n      swap6\n      pop\n      pop\n      pop\n      pop\n      pop\n      pop\n        /* \"contracts/MergeSortedArray.sol\":94:1198  function mergeSortedArray() public pure returns(int8[] memory ) {... */\n      swap1\n      jump\t// out\n        /* \"#utility.yul\":7:118   */\n    tag_82:\n        /* \"#utility.yul\":71:77   */\n      0x00\n        /* \"#utility.yul\":105:110   */\n      dup2\n        /* \"#utility.yul\":99:111   */\n      mload\n        /* \"#utility.yul\":89:111   */\n      swap1\n      pop\n        /* \"#utility.yul\":7:118   */\n      swap2\n      swap1\n      pop\n      jump\t// out\n        /* \"#utility.yul\":124:305   */\n    tag_83:\n        /* \"#utility.yul\":220:231   */\n      0x00\n        /* \"#utility.yul\":254:260   */\n      dup3\n        /* \"#utility.yul\":249:252   */\n      dup3\n        /* \"#utility.yul\":242:261   */\n      mstore\n        /* \"#utility.yul\":294:298   */\n      0x20\n        /* \"#utility.yul\":289:292   */\n      dup3\n        /* \"#utility.yul\":285:299   */\n      add\n        /* \"#utility.yul\":270:299   */\n      swap1\n      pop\n        /* \"#utility.yul\":124:305   */\n      swap3\n      swap2\n      pop\n      pop\n      jump\t// out\n        /* \"#utility.yul\":311:440   */\n    tag_84:\n        /* \"#utility.yul\":375:379   */\n      0x00\n        /* \"#utility.yul\":398:401   */\n      dup2\n        /* \"#utility.yul\":390:401   */\n      swap1\n      pop\n        /* \"#utility.yul\":428:432   */\n      0x20\n        /* \"#utility.yul\":423:426   */\n      dup3\n        /* \"#utility.yul\":419:433   */\n      add\n        /* \"#utility.yul\":411:433   */\n      swap1\n      pop\n        /* \"#utility.yul\":311:440   */\n      swap2\n      swap1\n      pop\n      jump\t// out\n        /* \"#utility.yul\":446:535   */\n    tag_85:\n        /* \"#utility.yul\":480:487   */\n      0x00\n        /* \"#utility.yul\":523:528   */\n      dup2\n        /* \"#utility.yul\":520:521   */\n      0x00\n        /* \"#utility.yul\":509:529   */\n      signextend\n        /* \"#utility.yul\":498:529   */\n      swap1\n      pop\n        /* \"#utility.yul\":446:535   */\n      swap2\n      swap1\n      pop\n      jump\t// out\n        /* \"#utility.yul\":541:640   */\n    tag_86:\n        /* \"#utility.yul\":612:633   */\n      tag_98\n        /* \"#utility.yul\":627:632   */\n      dup2\n        /* \"#utility.yul\":612:633   */\n      tag_85\n      jump\t// in\n    tag_98:\n        /* \"#utility.yul\":607:610   */\n      dup3\n        /* \"#utility.yul\":600:634   */\n      mstore\n        /* \"#utility.yul\":541:640   */\n      pop\n      pop\n      jump\t// out\n        /* \"#utility.yul\":646:813   */\n    tag_87:\n        /* \"#utility.yul\":709:719   */\n      0x00\n        /* \"#utility.yul\":730:770   */\n      tag_100\n        /* \"#utility.yul\":766:769   */\n      dup4\n        /* \"#utility.yul\":758:764   */\n      dup4\n        /* \"#utility.yul\":730:770   */\n      tag_86\n      jump\t// in\n    tag_100:\n        /* \"#utility.yul\":802:806   */\n      0x20\n        /* \"#utility.yul\":797:800   */\n      dup4\n        /* \"#utility.yul\":793:807   */\n      add\n        /* \"#utility.yul\":779:807   */\n      swap1\n      pop\n        /* \"#utility.yul\":646:813   */\n      swap3\n      swap2\n      pop\n      pop\n      jump\t// out\n        /* \"#utility.yul\":819:929   */\n    tag_88:\n        /* \"#utility.yul\":886:890   */\n      0x00\n        /* \"#utility.yul\":918:922   */\n      0x20\n        /* \"#utility.yul\":913:916   */\n      dup3\n        /* \"#utility.yul\":909:923   */\n      add\n        /* \"#utility.yul\":901:923   */\n      swap1\n      pop\n        /* \"#utility.yul\":819:929   */\n      swap2\n      swap1\n      pop\n      jump\t// out\n        /* \"#utility.yul\":959:1667   */\n    tag_89:\n        /* \"#utility.yul\":1072:1075   */\n      0x00\n        /* \"#utility.yul\":1101:1152   */\n      tag_103\n        /* \"#utility.yul\":1146:1151   */\n      dup3\n        /* \"#utility.yul\":1101:1152   */\n      tag_82\n      jump\t// in\n    tag_103:\n        /* \"#utility.yul\":1168:1251   */\n      tag_104\n        /* \"#utility.yul\":1244:1250   */\n      dup2\n        /* \"#utility.yul\":1239:1242   */\n      dup6\n        /* \"#utility.yul\":1168:1251   */\n      tag_83\n      jump\t// in\n    tag_104:\n        /* \"#utility.yul\":1161:1251   */\n      swap4\n      pop\n        /* \"#utility.yul\":1275:1328   */\n      tag_105\n        /* \"#utility.yul\":1322:1327   */\n      dup4\n        /* \"#utility.yul\":1275:1328   */\n      tag_84\n      jump\t// in\n    tag_105:\n        /* \"#utility.yul\":1351:1358   */\n      dup1\n        /* \"#utility.yul\":1382:1383   */\n      0x00\n        /* \"#utility.yul\":1367:1642   */\n    tag_106:\n        /* \"#utility.yul\":1392:1398   */\n      dup4\n        /* \"#utility.yul\":1389:1390   */\n      dup2\n        /* \"#utility.yul\":1386:1399   */\n      lt\n        /* \"#utility.yul\":1367:1642   */\n      iszero\n      tag_108\n      jumpi\n        /* \"#utility.yul\":1468:1474   */\n      dup2\n        /* \"#utility.yul\":1462:1475   */\n      mload\n        /* \"#utility.yul\":1495:1552   */\n      tag_109\n        /* \"#utility.yul\":1548:1551   */\n      dup9\n        /* \"#utility.yul\":1533:1546   */\n      dup3\n        /* \"#utility.yul\":1495:1552   */\n      tag_87\n      jump\t// in\n    tag_109:\n        /* \"#utility.yul\":1488:1552   */\n      swap8\n      pop\n        /* \"#utility.yul\":1575:1632   */\n      tag_110\n        /* \"#utility.yul\":1625:1631   */\n      dup4\n        /* \"#utility.yul\":1575:1632   */\n      tag_88\n      jump\t// in\n    tag_110:\n        /* \"#utility.yul\":1565:1632   */\n      swap3\n      pop\n        /* \"#utility.yul\":1427:1642   */\n      pop\n        /* \"#utility.yul\":1414:1415   */\n      0x01\n        /* \"#utility.yul\":1411:1412   */\n      dup2\n        /* \"#utility.yul\":1407:1416   */\n      add\n        /* \"#utility.yul\":1402:1416   */\n      swap1\n      pop\n        /* \"#utility.yul\":1367:1642   */\n      jump(tag_106)\n    tag_108:\n        /* \"#utility.yul\":1371:1385   */\n      pop\n        /* \"#utility.yul\":1658:1661   */\n      dup6\n        /* \"#utility.yul\":1651:1661   */\n      swap4\n      pop\n        /* \"#utility.yul\":1077:1667   */\n      pop\n      pop\n      pop\n        /* \"#utility.yul\":959:1667   */\n      swap3\n      swap2\n      pop\n      pop\n      jump\t// out\n        /* \"#utility.yul\":1673:2034   */\n    tag_7:\n        /* \"#utility.yul\":1810:1814   */\n      0x00\n        /* \"#utility.yul\":1848:1850   */\n      0x20\n        /* \"#utility.yul\":1837:1846   */\n      dup3\n        /* \"#utility.yul\":1833:1851   */\n      add\n        /* \"#utility.yul\":1825:1851   */\n      swap1\n      pop\n        /* \"#utility.yul\":1897:1906   */\n      dup2\n        /* \"#utility.yul\":1891:1895   */\n      dup2\n        /* \"#utility.yul\":1887:1907   */\n      sub\n        /* \"#utility.yul\":1883:1884   */\n      0x00\n        /* \"#utility.yul\":1872:1881   */\n      dup4\n        /* \"#utility.yul\":1868:1885   */\n      add\n        /* \"#utility.yul\":1861:1908   */\n      mstore\n        /* \"#utility.yul\":1925:2027   */\n      tag_112\n        /* \"#utility.yul\":2022:2026   */\n      dup2\n        /* \"#utility.yul\":2013:2019   */\n      dup5\n        /* \"#utility.yul\":1925:2027   */\n      tag_89\n      jump\t// in\n    tag_112:\n        /* \"#utility.yul\":1917:2027   */\n      swap1\n      pop\n        /* \"#utility.yul\":1673:2034   */\n      swap3\n      swap2\n      pop\n      pop\n      jump\t// out\n        /* \"#utility.yul\":2040:2220   */\n    tag_11:\n        /* \"#utility.yul\":2088:2165   */\n      0x4e487b7100000000000000000000000000000000000000000000000000000000\n        /* \"#utility.yul\":2085:2086   */\n      0x00\n        /* \"#utility.yul\":2078:2166   */\n      mstore\n        /* \"#utility.yul\":2185:2189   */\n      0x41\n        /* \"#utility.yul\":2182:2183   */\n      0x04\n        /* \"#utility.yul\":2175:2190   */\n      mstore\n        /* \"#utility.yul\":2209:2213   */\n      0x24\n        /* \"#utility.yul\":2206:2207   */\n      0x00\n        /* \"#utility.yul\":2199:2214   */\n      revert\n        /* \"#utility.yul\":2226:2406   */\n    tag_15:\n        /* \"#utility.yul\":2274:2351   */\n      0x4e487b7100000000000000000000000000000000000000000000000000000000\n        /* \"#utility.yul\":2271:2272   */\n      0x00\n        /* \"#utility.yul\":2264:2352   */\n      mstore\n        /* \"#utility.yul\":2371:2375   */\n      0x32\n        /* \"#utility.yul\":2368:2369   */\n      0x04\n        /* \"#utility.yul\":2361:2376   */\n      mstore\n        /* \"#utility.yul\":2395:2399   */\n      0x24\n        /* \"#utility.yul\":2392:2393   */\n      0x00\n        /* \"#utility.yul\":2385:2400   */\n      revert\n        /* \"#utility.yul\":2412:2489   */\n    tag_90:\n        /* \"#utility.yul\":2449:2456   */\n      0x00\n        /* \"#utility.yul\":2478:2483   */\n      dup2\n        /* \"#utility.yul\":2467:2483   */\n      swap1\n      pop\n        /* \"#utility.yul\":2412:2489   */\n      swap2\n      swap1\n      pop\n      jump\t// out\n        /* \"#utility.yul\":2495:2675   */\n    tag_91:\n        /* \"#utility.yul\":2543:2620   */\n      0x4e487b7100000000000000000000000000000000000000000000000000000000\n        /* \"#utility.yul\":2540:2541   */\n      0x00\n        /* \"#utility.yul\":2533:2621   */\n      mstore\n        /* \"#utility.yul\":2640:2644   */\n      0x11\n        /* \"#utility.yul\":2637:2638   */\n      0x04\n        /* \"#utility.yul\":2630:2645   */\n      mstore\n        /* \"#utility.yul\":2664:2668   */\n      0x24\n        /* \"#utility.yul\":2661:2662   */\n      0x00\n        /* \"#utility.yul\":2654:2669   */\n      revert\n        /* \"#utility.yul\":2681:2872   */\n    tag_40:\n        /* \"#utility.yul\":2721:2724   */\n      0x00\n        /* \"#utility.yul\":2740:2760   */\n      tag_118\n        /* \"#utility.yul\":2758:2759   */\n      dup3\n        /* \"#utility.yul\":2740:2760   */\n      tag_90\n      jump\t// in\n    tag_118:\n        /* \"#utility.yul\":2735:2760   */\n      swap2\n      pop\n        /* \"#utility.yul\":2774:2794   */\n      tag_119\n        /* \"#utility.yul\":2792:2793   */\n      dup4\n        /* \"#utility.yul\":2774:2794   */\n      tag_90\n      jump\t// in\n    tag_119:\n        /* \"#utility.yul\":2769:2794   */\n      swap3\n      pop\n        /* \"#utility.yul\":2817:2818   */\n      dup3\n        /* \"#utility.yul\":2814:2815   */\n      dup3\n        /* \"#utility.yul\":2810:2819   */\n      add\n        /* \"#utility.yul\":2803:2819   */\n      swap1\n      pop\n        /* \"#utility.yul\":2838:2841   */\n      dup1\n        /* \"#utility.yul\":2835:2836   */\n      dup3\n        /* \"#utility.yul\":2832:2842   */\n      gt\n        /* \"#utility.yul\":2829:2865   */\n      iszero\n      tag_120\n      jumpi\n        /* \"#utility.yul\":2845:2863   */\n      tag_121\n      tag_91\n      jump\t// in\n    tag_121:\n        /* \"#utility.yul\":2829:2865   */\n    tag_120:\n        /* \"#utility.yul\":2681:2872   */\n      swap3\n      swap2\n      pop\n      pop\n      jump\t// out\n        /* \"#utility.yul\":2878:3111   */\n    tag_58:\n        /* \"#utility.yul\":2917:2920   */\n      0x00\n        /* \"#utility.yul\":2940:2964   */\n      tag_123\n        /* \"#utility.yul\":2958:2963   */\n      dup3\n        /* \"#utility.yul\":2940:2964   */\n      tag_90\n      jump\t// in\n    tag_123:\n        /* \"#utility.yul\":2931:2964   */\n      swap2\n      pop\n        /* \"#utility.yul\":2986:3052   */\n      0xffffffffffffffffffffffffffffffffffffffffffffffffffffffffffffffff\n        /* \"#utility.yul\":2979:2984   */\n      dup3\n        /* \"#utility.yul\":2976:3053   */\n      sub\n        /* \"#utility.yul\":2973:3076   */\n      tag_124\n      jumpi\n        /* \"#utility.yul\":3056:3074   */\n      tag_125\n      tag_91\n      jump\t// in\n    tag_125:\n        /* \"#utility.yul\":2973:3076   */\n    tag_124:\n        /* \"#utility.yul\":3103:3104   */\n      0x01\n        /* \"#utility.yul\":3096:3101   */\n      dup3\n        /* \"#utility.yul\":3092:3105   */\n      add\n        /* \"#utility.yul\":3085:3105   */\n      swap1\n      pop\n        /* \"#utility.yul\":2878:3111   */\n      swap2\n      swap1\n      pop\n      jump\t// out\n\n    auxdata: 0xa264697066735822122078d9c3e58d4905e59bfdd82bd306ac72b455d67f999c1e3f708974fe50b8adcf64736f6c634300081e0033\n}\n",
				"bytecode": {
					"linkReferences": {},
					"object": "6080604052348015600e575f5ffd5b5061070e8061001c5f395ff3fe608060405234801561000f575f5ffd5b5060043610610029575f3560e01c8063aca062821461002d575b5f5ffd5b61003561004b565b60405161004291906105ae565b60405180910390f35b60605f600767ffffffffffffffff811115610069576100686105ce565b5b6040519080825280602002602001820160405280156100975781602001602082028036833780820191505090505b5090506001815f815181106100af576100ae6105fb565b5b60200260200101905f0b90815f0b815250506003816001815181106100d7576100d66105fb565b5b60200260200101905f0b90815f0b815250506004816002815181106100ff576100fe6105fb565b5b60200260200101905f0b90815f0b81525050600581600381518110610127576101266105fb565b5b60200260200101905f0b90815f0b8152505060078160048151811061014f5761014e6105fb565b5b60200260200101905f0b90815f0b81525050600881600581518110610177576101766105fb565b5b60200260200101905f0b90815f0b81525050600a8160068151811061019f5761019e6105fb565b5b60200260200101905f0b90815f0b815250505f600467ffffffffffffffff8111156101cd576101cc6105ce565b5b6040519080825280602002602001820160405280156101fb5781602001602082028036833780820191505090505b5090506002815f81518110610213576102126105fb565b5b60200260200101905f0b90815f0b8152505060068160018151811061023b5761023a6105fb565b5b60200260200101905f0b90815f0b81525050600781600281518110610263576102626105fb565b5b60200260200101905f0b90815f0b8152505060098160038151811061028b5761028a6105fb565b5b60200260200101905f0b90815f0b815250505f815183516102ac919061065e565b67ffffffffffffffff8111156102c5576102c46105ce565b5b6040519080825280602002602001820160405280156102f35781602001602082028036833780820191505090505b5090505f5f90505f5f90505b84518210801561030f5750835181105b1561041157838181518110610327576103266105fb565b5b60200260200101515f0b858381518110610344576103436105fb565b5b60200260200101515f0b12156103b257848281518110610367576103666105fb565b5b602002602001015183828461037c919061065e565b8151811061038d5761038c6105fb565b5b60200260200101905f0b90815f0b8152505081806103aa90610691565b92505061040c565b8381815181106103c5576103c46105fb565b5b60200260200101518382846103da919061065e565b815181106103eb576103ea6105fb565b5b60200260200101905f0b90815f0b81525050808061040890610691565b9150505b6102ff565b5b84518210156104795784828151811061042e5761042d6105fb565b5b6020026020010151838284610443919061065e565b81518110610454576104536105fb565b5b60200260200101905f0b90815f0b81525050818061047190610691565b925050610412565b5b83518110156104e157838181518110610496576104956105fb565b5b60200260200101518382846104ab919061065e565b815181106104bc576104bb6105fb565b5b60200260200101905f0b90815f0b8152505080806104d990610691565b91505061047a565b829550505050505090565b5f81519050919050565b5f82825260208201905092915050565b5f819050602082019050919050565b5f815f0b9050919050565b61052981610515565b82525050565b5f61053a8383610520565b60208301905092915050565b5f602082019050919050565b5f61055c826104ec565b61056681856104f6565b935061057183610506565b805f5b838110156105a1578151610588888261052f565b975061059383610546565b925050600181019050610574565b5085935050505092915050565b5f6020820190508181035f8301526105c68184610552565b905092915050565b7f4e487b71000000000000000000000000000000000000000000000000000000005f52604160045260245ffd5b7f4e487b71000000000000000000000000000000000000000000000000000000005f52603260045260245ffd5b5f819050919050565b7f4e487b71000000000000000000000000000000000000000000000000000000005f52601160045260245ffd5b5f61066882610628565b915061067383610628565b925082820190508082111561068b5761068a610631565b5b92915050565b5f61069b82610628565b91507fffffffffffffffffffffffffffffffffffffffffffffffffffffffffffffffff82036106cd576106cc610631565b5b60018201905091905056fea264697066735822122078d9c3e58d4905e59bfdd82bd306ac72b455d67f999c1e3f708974fe50b8adcf64736f6c634300081e0033",
					"opcodes": "PUSH1 0x80 PUSH1 0x40 MSTORE CALLVALUE DUP1 ISZERO PUSH1 0xE JUMPI PUSH0 PUSH0 REVERT JUMPDEST POP PUSH2 0x70E DUP1 PUSH2 0x1C PUSH0 CODECOPY PUSH0 RETURN INVALID PUSH1 0x80 PUSH1 0x40 MSTORE CALLVALUE DUP1 ISZERO PUSH2 0xF JUMPI PUSH0 PUSH0 REVERT JUMPDEST POP PUSH1 0x4 CALLDATASIZE LT PUSH2 0x29 JUMPI PUSH0 CALLDATALOAD PUSH1 0xE0 SHR DUP1 PUSH4 0xACA06282 EQ PUSH2 0x2D JUMPI JUMPDEST PUSH0 PUSH0 REVERT JUMPDEST PUSH2 0x35 PUSH2 0x4B JUMP JUMPDEST PUSH1 0x40 MLOAD PUSH2 0x42 SWAP2 SWAP1 PUSH2 0x5AE JUMP JUMPDEST PUSH1 0x40 MLOAD DUP1 SWAP2 SUB SWAP1 RETURN JUMPDEST PUSH1 0x60 PUSH0 PUSH1 0x7 PUSH8 0xFFFFFFFFFFFFFFFF DUP2 GT ISZERO PUSH2 0x69 JUMPI PUSH2 0x68 PUSH2 0x5CE JUMP JUMPDEST JUMPDEST PUSH1 0x40 MLOAD SWAP1 DUP1 DUP3 MSTORE DUP1 PUSH1 0x20 MUL PUSH1 0x20 ADD DUP3 ADD PUSH1 0x40 MSTORE DUP1 ISZERO PUSH2 0x97 JUMPI DUP2 PUSH1 0x20 ADD PUSH1 0x20 DUP3 MUL DUP1 CALLDATASIZE DUP4 CALLDATACOPY DUP1 DUP3 ADD SWAP2 POP POP SWAP1 POP JUMPDEST POP SWAP1 POP PUSH1 0x1 DUP2 PUSH0 DUP2 MLOAD DUP2 LT PUSH2 0xAF JUMPI PUSH2 0xAE PUSH2 0x5FB JUMP JUMPDEST JUMPDEST PUSH1 0x20 MUL PUSH1 0x20 ADD ADD SWAP1 PUSH0 SIGNEXTEND SWAP1 DUP2 PUSH0 SIGNEXTEND DUP2 MSTORE POP POP PUSH1 0x3 DUP2 PUSH1 0x1 DUP2 MLOAD DUP2 LT PUSH2 0xD7 JUMPI PUSH2 0xD6 PUSH2 0x5FB JUMP JUMPDEST JUMPDEST PUSH1 0x20 MUL PUSH1 0x20 ADD ADD SWAP1 PUSH0 SIGNEXTEND SWAP1 DUP2 PUSH0 SIGNEXTEND DUP2 MSTORE POP POP PUSH1 0x4 DUP2 PUSH1 0x2 DUP2 MLOAD DUP2 LT PUSH2 0xFF JUMPI PUSH2 0xFE PUSH2 0x5FB JUMP JUMPDEST JUMPDEST PUSH1 0x20 MUL PUSH1 0x20 ADD ADD SWAP1 PUSH0 SIGNEXTEND SWAP1 DUP2 PUSH0 SIGNEXTEND DUP2 MSTORE POP POP PUSH1 0x5 DUP2 PUSH1 0x3 DUP2 MLOAD DUP2 LT PUSH2 0x127 JUMPI PUSH2 0x126 PUSH2 0x5FB JUMP JUMPDEST JUMPDEST PUSH1 0x20 MUL PUSH1 0x20 ADD ADD SWAP1 PUSH0 SIGNEXTEND SWAP1 DUP2 PUSH0 SIGNEXTEND DUP2 MSTORE POP POP PUSH1 0x7 DUP2 PUSH1 0x4 DUP2 MLOAD DUP2 LT PUSH2 0x14F JUMPI PUSH2 0x14E PUSH2 0x5FB JUMP JUMPDEST JUMPDEST PUSH1 0x20 MUL PUSH1 0x20 ADD ADD SWAP1 PUSH0 SIGNEXTEND SWAP1 DUP2 PUSH0 SIGNEXTEND DUP2 MSTORE POP POP PUSH1 0x8 DUP2 PUSH1 0x5 DUP2 MLOAD DUP2 LT PUSH2 0x177 JUMPI PUSH2 0x176 PUSH2 0x5FB JUMP JUMPDEST JUMPDEST PUSH1 0x20 MUL PUSH1 0x20 ADD ADD SWAP1 PUSH0 SIGNEXTEND SWAP1 DUP2 PUSH0 SIGNEXTEND DUP2 MSTORE POP POP PUSH1 0xA DUP2 PUSH1 0x6 DUP2 MLOAD DUP2 LT PUSH2 0x19F JUMPI PUSH2 0x19E PUSH2 0x5FB JUMP JUMPDEST JUMPDEST PUSH1 0x20 MUL PUSH1 0x20 ADD ADD SWAP1 PUSH0 SIGNEXTEND SWAP1 DUP2 PUSH0 SIGNEXTEND DUP2 MSTORE POP POP PUSH0 PUSH1 0x4 PUSH8 0xFFFFFFFFFFFFFFFF DUP2 GT ISZERO PUSH2 0x1CD JUMPI PUSH2 0x1CC PUSH2 0x5CE JUMP JUMPDEST JUMPDEST PUSH1 0x40 MLOAD SWAP1 DUP1 DUP3 MSTORE DUP1 PUSH1 0x20 MUL PUSH1 0x20 ADD DUP3 ADD PUSH1 0x40 MSTORE DUP1 ISZERO PUSH2 0x1FB JUMPI DUP2 PUSH1 0x20 ADD PUSH1 0x20 DUP3 MUL DUP1 CALLDATASIZE DUP4 CALLDATACOPY DUP1 DUP3 ADD SWAP2 POP POP SWAP1 POP JUMPDEST POP SWAP1 POP PUSH1 0x2 DUP2 PUSH0 DUP2 MLOAD DUP2 LT PUSH2 0x213 JUMPI PUSH2 0x212 PUSH2 0x5FB JUMP JUMPDEST JUMPDEST PUSH1 0x20 MUL PUSH1 0x20 ADD ADD SWAP1 PUSH0 SIGNEXTEND SWAP1 DUP2 PUSH0 SIGNEXTEND DUP2 MSTORE POP POP PUSH1 0x6 DUP2 PUSH1 0x1 DUP2 MLOAD DUP2 LT PUSH2 0x23B JUMPI PUSH2 0x23A PUSH2 0x5FB JUMP JUMPDEST JUMPDEST PUSH1 0x20 MUL PUSH1 0x20 ADD ADD SWAP1 PUSH0 SIGNEXTEND SWAP1 DUP2 PUSH0 SIGNEXTEND DUP2 MSTORE POP POP PUSH1 0x7 DUP2 PUSH1 0x2 DUP2 MLOAD DUP2 LT PUSH2 0x263 JUMPI PUSH2 0x262 PUSH2 0x5FB JUMP JUMPDEST JUMPDEST PUSH1 0x20 MUL PUSH1 0x20 ADD ADD SWAP1 PUSH0 SIGNEXTEND SWAP1 DUP2 PUSH0 SIGNEXTEND DUP2 MSTORE POP POP PUSH1 0x9 DUP2 PUSH1 0x3 DUP2 MLOAD DUP2 LT PUSH2 0x28B JUMPI PUSH2 0x28A PUSH2 0x5FB JUMP JUMPDEST JUMPDEST PUSH1 0x20 MUL PUSH1 0x20 ADD ADD SWAP1 PUSH0 SIGNEXTEND SWAP1 DUP2 PUSH0 SIGNEXTEND DUP2 MSTORE POP POP PUSH0 DUP2 MLOAD DUP4 MLOAD PUSH2 0x2AC SWAP2 SWAP1 PUSH2 0x65E JUMP JUMPDEST PUSH8 0xFFFFFFFFFFFFFFFF DUP2 GT ISZERO PUSH2 0x2C5 JUMPI PUSH2 0x2C4 PUSH2 0x5CE JUMP JUMPDEST JUMPDEST PUSH1 0x40 MLOAD SWAP1 DUP1 DUP3 MSTORE DUP1 PUSH1 0x20 MUL PUSH1 0x20 ADD DUP3 ADD PUSH1 0x40 MSTORE DUP1 ISZERO PUSH2 0x2F3 JUMPI DUP2 PUSH1 0x20 ADD PUSH1 0x20 DUP3 MUL DUP1 CALLDATASIZE DUP4 CALLDATACOPY DUP1 DUP3 ADD SWAP2 POP POP SWAP1 POP JUMPDEST POP SWAP1 POP PUSH0 PUSH0 SWAP1 POP PUSH0 PUSH0 SWAP1 POP JUMPDEST DUP5 MLOAD DUP3 LT DUP1 ISZERO PUSH2 0x30F JUMPI POP DUP4 MLOAD DUP2 LT JUMPDEST ISZERO PUSH2 0x411 JUMPI DUP4 DUP2 DUP2 MLOAD DUP2 LT PUSH2 0x327 JUMPI PUSH2 0x326 PUSH2 0x5FB JUMP JUMPDEST JUMPDEST PUSH1 0x20 MUL PUSH1 0x20 ADD ADD MLOAD PUSH0 SIGNEXTEND DUP6 DUP4 DUP2 MLOAD DUP2 LT PUSH2 0x344 JUMPI PUSH2 0x343 PUSH2 0x5FB JUMP JUMPDEST JUMPDEST PUSH1 0x20 MUL PUSH1 0x20 ADD ADD MLOAD PUSH0 SIGNEXTEND SLT ISZERO PUSH2 0x3B2 JUMPI DUP5 DUP3 DUP2 MLOAD DUP2 LT PUSH2 0x367 JUMPI PUSH2 0x366 PUSH2 0x5FB JUMP JUMPDEST JUMPDEST PUSH1 0x20 MUL PUSH1 0x20 ADD ADD MLOAD DUP4 DUP3 DUP5 PUSH2 0x37C SWAP2 SWAP1 PUSH2 0x65E JUMP JUMPDEST DUP2 MLOAD DUP2 LT PUSH2 0x38D JUMPI PUSH2 0x38C PUSH2 0x5FB JUMP JUMPDEST JUMPDEST PUSH1 0x20 MUL PUSH1 0x20 ADD ADD SWAP1 PUSH0 SIGNEXTEND SWAP1 DUP2 PUSH0 SIGNEXTEND DUP2 MSTORE POP POP DUP2 DUP1 PUSH2 0x3AA SWAP1 PUSH2 0x691 JUMP JUMPDEST SWAP3 POP POP PUSH2 0x40C JUMP JUMPDEST DUP4 DUP2 DUP2 MLOAD DUP2 LT PUSH2 0x3C5 JUMPI PUSH2 0x3C4 PUSH2 0x5FB JUMP JUMPDEST JUMPDEST PUSH1 0x20 MUL PUSH1 0x20 ADD ADD MLOAD DUP4 DUP3 DUP5 PUSH2 0x3DA SWAP2 SWAP1 PUSH2 0x65E JUMP JUMPDEST DUP2 MLOAD DUP2 LT PUSH2 0x3EB JUMPI PUSH2 0x3EA PUSH2 0x5FB JUMP JUMPDEST JUMPDEST PUSH1 0x20 MUL PUSH1 0x20 ADD ADD SWAP1 PUSH0 SIGNEXTEND SWAP1 DUP2 PUSH0 SIGNEXTEND DUP2 MSTORE POP POP DUP1 DUP1 PUSH2 0x408 SWAP1 PUSH2 0x691 JUMP JUMPDEST SWAP2 POP POP JUMPDEST PUSH2 0x2FF JUMP JUMPDEST JUMPDEST DUP5 MLOAD DUP3 LT ISZERO PUSH2 0x479 JUMPI DUP5 DUP3 DUP2 MLOAD DUP2 LT PUSH2 0x42E JUMPI PUSH2 0x42D PUSH2 0x5FB JUMP JUMPDEST JUMPDEST PUSH1 0x20 MUL PUSH1 0x20 ADD ADD MLOAD DUP4 DUP3 DUP5 PUSH2 0x443 SWAP2 SWAP1 PUSH2 0x65E JUMP JUMPDEST DUP2 MLOAD DUP2 LT PUSH2 0x454 JUMPI PUSH2 0x453 PUSH2 0x5FB JUMP JUMPDEST JUMPDEST PUSH1 0x20 MUL PUSH1 0x20 ADD ADD SWAP1 PUSH0 SIGNEXTEND SWAP1 DUP2 PUSH0 SIGNEXTEND DUP2 MSTORE POP POP DUP2 DUP1 PUSH2 0x471 SWAP1 PUSH2 0x691 JUMP JUMPDEST SWAP3 POP POP PUSH2 0x412 JUMP JUMPDEST JUMPDEST DUP4 MLOAD DUP2 LT ISZERO PUSH2 0x4E1 JUMPI DUP4 DUP2 DUP2 MLOAD DUP2 LT PUSH2 0x496 JUMPI PUSH2 0x495 PUSH2 0x5FB JUMP JUMPDEST JUMPDEST PUSH1 0x20 MUL PUSH1 0x20 ADD ADD MLOAD DUP4 DUP3 DUP5 PUSH2 0x4AB SWAP2 SWAP1 PUSH2 0x65E JUMP JUMPDEST DUP2 MLOAD DUP2 LT PUSH2 0x4BC JUMPI PUSH2 0x4BB PUSH2 0x5FB JUMP JUMPDEST JUMPDEST PUSH1 0x20 MUL PUSH1 0x20 ADD ADD SWAP1 PUSH0 SIGNEXTEND SWAP1 DUP2 PUSH0 SIGNEXTEND DUP2 MSTORE POP POP DUP1 DUP1 PUSH2 0x4D9 SWAP1 PUSH2 0x691 JUMP JUMPDEST SWAP2 POP POP PUSH2 0x47A JUMP JUMPDEST DUP3 SWAP6 POP POP POP POP POP POP SWAP1 JUMP JUMPDEST PUSH0 DUP2 MLOAD SWAP1 POP SWAP2 SWAP1 POP JUMP JUMPDEST PUSH0 DUP3 DUP3 MSTORE PUSH1 0x20 DUP3 ADD SWAP1 POP SWAP3 SWAP2 POP POP JUMP JUMPDEST PUSH0 DUP2 SWAP1 POP PUSH1 0x20 DUP3 ADD SWAP1 POP SWAP2 SWAP1 POP JUMP JUMPDEST PUSH0 DUP2 PUSH0 SIGNEXTEND SWAP1 POP SWAP2 SWAP1 POP JUMP JUMPDEST PUSH2 0x529 DUP2 PUSH2 0x515 JUMP JUMPDEST DUP3 MSTORE POP POP JUMP JUMPDEST PUSH0 PUSH2 0x53A DUP4 DUP4 PUSH2 0x520 JUMP JUMPDEST PUSH1 0x20 DUP4 ADD SWAP1 POP SWAP3 SWAP2 POP POP JUMP JUMPDEST PUSH0 PUSH1 0x20 DUP3 ADD SWAP1 POP SWAP2 SWAP1 POP JUMP JUMPDEST PUSH0 PUSH2 0x55C DUP3 PUSH2 0x4EC JUMP JUMPDEST PUSH2 0x566 DUP2 DUP6 PUSH2 0x4F6 JUMP JUMPDEST SWAP4 POP PUSH2 0x571 DUP4 PUSH2 0x506 JUMP JUMPDEST DUP1 PUSH0 JUMPDEST DUP4 DUP2 LT ISZERO PUSH2 0x5A1 JUMPI DUP2 MLOAD PUSH2 0x588 DUP9 DUP3 PUSH2 0x52F JUMP JUMPDEST SWAP8 POP PUSH2 0x593 DUP4 PUSH2 0x546 JUMP JUMPDEST SWAP3 POP POP PUSH1 0x1 DUP2 ADD SWAP1 POP PUSH2 0x574 JUMP JUMPDEST POP DUP6 SWAP4 POP POP POP POP SWAP3 SWAP2 POP POP JUMP JUMPDEST PUSH0 PUSH1 0x20 DUP3 ADD SWAP1 POP DUP2 DUP2 SUB PUSH0 DUP4 ADD MSTORE PUSH2 0x5C6 DUP2 DUP5 PUSH2 0x552 JUMP JUMPDEST SWAP1 POP SWAP3 SWAP2 POP POP JUMP JUMPDEST PUSH32 0x4E487B7100000000000000000000000000000000000000000000000000000000 PUSH0 MSTORE PUSH1 0x41 PUSH1 0x4 MSTORE PUSH1 0x24 PUSH0 REVERT JUMPDEST PUSH32 0x4E487B7100000000000000000000000000000000000000000000000000000000 PUSH0 MSTORE PUSH1 0x32 PUSH1 0x4 MSTORE PUSH1 0x24 PUSH0 REVERT JUMPDEST PUSH0 DUP2 SWAP1 POP SWAP2 SWAP1 POP JUMP JUMPDEST PUSH32 0x4E487B7100000000000000000000000000000000000000000000000000000000 PUSH0 MSTORE PUSH1 0x11 PUSH1 0x4 MSTORE PUSH1 0x24 PUSH0 REVERT JUMPDEST PUSH0 PUSH2 0x668 DUP3 PUSH2 0x628 JUMP JUMPDEST SWAP2 POP PUSH2 0x673 DUP4 PUSH2 0x628 JUMP JUMPDEST SWAP3 POP DUP3 DUP3 ADD SWAP1 POP DUP1 DUP3 GT ISZERO PUSH2 0x68B JUMPI PUSH2 0x68A PUSH2 0x631 JUMP JUMPDEST JUMPDEST SWAP3 SWAP2 POP POP JUMP JUMPDEST PUSH0 PUSH2 0x69B DUP3 PUSH2 0x628 JUMP JUMPDEST SWAP2 POP PUSH32 0xFFFFFFFFFFFFFFFFFFFFFFFFFFFFFFFFFFFFFFFFFFFFFFFFFFFFFFFFFFFFFFFF DUP3 SUB PUSH2 0x6CD JUMPI PUSH2 0x6CC PUSH2 0x631 JUMP JUMPDEST JUMPDEST PUSH1 0x1 DUP3 ADD SWAP1 POP SWAP2 SWAP1 POP JUMP INVALID LOG2 PUSH5 0x6970667358 0x22 SLT KECCAK256 PUSH25 0xD9C3E58D4905E59BFDD82BD306AC72B455D67F999C1E3F7089 PUSH21 0xFE50B8ADCF64736F6C634300081E00330000000000 "
				},
				"gasEstimates": {
					"creation": {
						"codeDepositCost": "361200",
						"executionCost": "397",
						"totalCost": "361597"
					},
					"external": {
						"mergeSortedArray()": "infinite"
					}
				},
				"methodIdentifiers": {
					"mergeSortedArray()": "aca06282"
				}
			},
			"storageLayout": {
				"storage": [],
				"types": null
			},
			"userdoc": {
				"kind": "user",
				"methods": {},
				"version": 1
			}
		}
	}
}